{
  "contractName": "CalStore",
  "abi": [
    {
      "inputs": [
        {
          "internalType": "uint256",
          "name": "_dtstamp",
          "type": "uint256"
        },
        {
          "internalType": "uint256",
          "name": "_dtstart",
          "type": "uint256"
        },
        {
          "internalType": "uint256",
          "name": "_dtend",
          "type": "uint256"
        },
        {
          "internalType": "string",
          "name": "_summary",
          "type": "string"
        },
        {
          "internalType": "string",
          "name": "_description",
          "type": "string"
        },
        {
          "internalType": "bool",
          "name": "_isallday",
          "type": "bool"
        },
        {
          "internalType": "string",
          "name": "_alldaystartdate",
          "type": "string"
        },
        {
          "internalType": "string",
          "name": "_alldayenddate",
          "type": "string"
        }
      ],
      "name": "storeEvent",
      "outputs": [],
      "stateMutability": "nonpayable",
      "type": "function"
    },
    {
      "inputs": [],
      "name": "justSayHi",
      "outputs": [
        {
          "internalType": "string",
          "name": "",
          "type": "string"
        }
      ],
      "stateMutability": "pure",
      "type": "function",
      "constant": true
    },
    {
      "inputs": [
        {
          "internalType": "uint256",
          "name": "_dtstamp",
          "type": "uint256"
        }
      ],
      "name": "removeEvent",
      "outputs": [],
      "stateMutability": "nonpayable",
      "type": "function"
    },
    {
      "inputs": [
        {
          "internalType": "uint256",
          "name": "timestamp",
          "type": "uint256"
        }
      ],
      "name": "timestampToDateTime",
      "outputs": [
        {
          "internalType": "uint256",
          "name": "year",
          "type": "uint256"
        },
        {
          "internalType": "uint256",
          "name": "month",
          "type": "uint256"
        },
        {
          "internalType": "uint256",
          "name": "day",
          "type": "uint256"
        },
        {
          "internalType": "uint256",
          "name": "hour",
          "type": "uint256"
        },
        {
          "internalType": "uint256",
          "name": "minute",
          "type": "uint256"
        },
        {
          "internalType": "uint256",
          "name": "second",
          "type": "uint256"
        }
      ],
      "stateMutability": "pure",
      "type": "function",
      "constant": true
    },
    {
      "inputs": [
        {
          "internalType": "address",
          "name": "_calOwner",
          "type": "address"
        }
      ],
      "name": "getEventsIcal",
      "outputs": [
        {
          "internalType": "string",
          "name": "",
          "type": "string"
        }
      ],
      "stateMutability": "view",
      "type": "function",
      "constant": true
    },
    {
      "inputs": [
        {
          "internalType": "address",
          "name": "_calOwner",
          "type": "address"
        }
      ],
      "name": "getEventsObj",
      "outputs": [
        {
          "components": [
            {
              "internalType": "uint256",
              "name": "dtstamp",
              "type": "uint256"
            },
            {
              "internalType": "uint256",
              "name": "dtstart",
              "type": "uint256"
            },
            {
              "internalType": "uint256",
              "name": "dtend",
              "type": "uint256"
            },
            {
              "internalType": "string",
              "name": "summary",
              "type": "string"
            },
            {
              "internalType": "string",
              "name": "description",
              "type": "string"
            },
            {
              "internalType": "bool",
              "name": "isallday",
              "type": "bool"
            },
            {
              "internalType": "string",
              "name": "alldaystartdate",
              "type": "string"
            },
            {
              "internalType": "string",
              "name": "alldayenddate",
              "type": "string"
            },
            {
              "internalType": "uint256",
              "name": "uid",
              "type": "uint256"
            }
          ],
          "internalType": "struct CalStore.VEvent[]",
          "name": "",
          "type": "tuple[]"
        }
      ],
      "stateMutability": "view",
      "type": "function",
      "constant": true
    }
  ],
  "bytecode": "0x608060405234801561001057600080fd5b50612489806100206000396000f3fe608060405234801561001057600080fd5b50600436106100625760003560e01c806310d00a67146100675780632d2de6781461009757806356164e1e146100b55780636d183b02146100d1578063ab7cc4d214610101578063ea1c16901461011d575b600080fd5b610081600480360361007c91908101906118fb565b610152565b60405161008e91906121b5565b60405180910390f35b61009f610798565b6040516100ac91906121b5565b60405180910390f35b6100cf60048036036100ca9190810190611924565b6107d5565b005b6100eb60048036036100e691908101906118fb565b610b1f565b6040516100f89190612193565b60405180910390f35b61011b6004803603610116919081019061194d565b610e8d565b005b61013760048036036101329190810190611924565b61109f565b604051610149969594939291906121d7565b60405180910390f35b60608060405180602001604052806000815250905060606040518060a00160405280606681526020016123ee60669139905060606040518060400160405280600e81526020017f454e443a5643414c454e4441520a000000000000000000000000000000000000815250905060606000808773ffffffffffffffffffffffffffffffffffffffff1673ffffffffffffffffffffffffffffffffffffffff168152602001908152602001600020805480602002602001604051908101604052809291908181526020016000905b8282101561051c578382906000526020600020906009020160405180610120016040529081600082015481526020016001820154815260200160028201548152602001600382018054600181600116156101000203166002900480601f0160208091040260200160405190810160405280929190818152602001828054600181600116156101000203166002900480156102f95780601f106102ce576101008083540402835291602001916102f9565b820191906000526020600020905b8154815290600101906020018083116102dc57829003601f168201915b50505050508152602001600482018054600181600116156101000203166002900480601f01602080910402602001604051908101604052809291908181526020018280546001816001161561010002031660029004801561039b5780601f106103705761010080835404028352916020019161039b565b820191906000526020600020905b81548152906001019060200180831161037e57829003601f168201915b505050505081526020016005820160009054906101000a900460ff16151515158152602001600682018054600181600116156101000203166002900480601f0160208091040260200160405190810160405280929190818152602001828054600181600116156101000203166002900480156104585780601f1061042d57610100808354040283529160200191610458565b820191906000526020600020905b81548152906001019060200180831161043b57829003601f168201915b50505050508152602001600782018054600181600116156101000203166002900480601f0160208091040260200160405190810160405280929190818152602001828054600181600116156101000203166002900480156104fa5780601f106104cf576101008083540402835291602001916104fa565b820191906000526020600020905b8154815290600101906020018083116104dd57829003601f168201915b505050505081526020016008820154815250508152602001906001019061021e565b505050509050606061052d876110d2565b905060008090505b825181101561076757606061056084838151811061054f57fe5b602002602001015160000151611221565b9050606061058585848151811061057357fe5b602002602001015161010001516112b4565b9050606085848151811061059557fe5b602002602001015160600151905060608685815181106105b157fe5b60200260200101516080015190506060806060808a89815181106105d157fe5b602002602001015160a0015115610665576040518060400160405280600c81526020017f3b56414c55453d444154453a000000000000000000000000000000000000000081525093508a898151811061062657fe5b602002602001015160c0015192508a898151811061064057fe5b602002602001015160e00151915060405180602001604052806000815250905061071a565b6040518060400160405280600181526020017f3a0000000000000000000000000000000000000000000000000000000000000081525093506106bd8b8a815181106106ac57fe5b602002602001015160200151611221565b92506106df8b8a815181106106ce57fe5b602002602001015160400151611221565b91506040518060400160405280600181526020017f5a0000000000000000000000000000000000000000000000000000000000000081525090505b8d88888c8787868a89898f8f6040516020016107419c9b9a99989796959493929190612026565b6040516020818303038152906040529d5050505050505050508080600101915050610535565b5083858460405160200161077d93929190611f92565b60405160208183030381529060405295505050505050919050565b60606040518060400160405280600281526020017f4869000000000000000000000000000000000000000000000000000000000000815250905090565b60008060003373ffffffffffffffffffffffffffffffffffffffff1673ffffffffffffffffffffffffffffffffffffffff16815260200190815260200160002080549050905060008090505b81811015610b1a57826000803373ffffffffffffffffffffffffffffffffffffffff1673ffffffffffffffffffffffffffffffffffffffff168152602001908152602001600020828154811061087357fe5b9060005260206000209060090201600001541415610b0d576000803373ffffffffffffffffffffffffffffffffffffffff1673ffffffffffffffffffffffffffffffffffffffff16815260200190815260200160002060018303815481106108d757fe5b90600052602060002090600902016000803373ffffffffffffffffffffffffffffffffffffffff1673ffffffffffffffffffffffffffffffffffffffff168152602001908152602001600020828154811061092e57fe5b9060005260206000209060090201600082015481600001556001820154816001015560028201548160020155600382018160030190805460018160011615610100020316600290046109819291906116a6565b50600482018160040190805460018160011615610100020316600290046109a99291906116a6565b506005820160009054906101000a900460ff168160050160006101000a81548160ff021916908315150217905550600682018160060190805460018160011615610100020316600290046109fe9291906116a6565b5060078201816007019080546001816001161561010002031660029004610a269291906116a6565b50600882015481600801559050506000803373ffffffffffffffffffffffffffffffffffffffff1673ffffffffffffffffffffffffffffffffffffffff168152602001908152602001600020805480610a7b57fe5b600190038181906000526020600020906009020160008082016000905560018201600090556002820160009055600382016000610ab8919061172d565b600482016000610ac8919061172d565b6005820160006101000a81549060ff0219169055600682016000610aec919061172d565b600782016000610afc919061172d565b600882016000905550509055610b1a565b8080600101915050610821565b505050565b6060806000808473ffffffffffffffffffffffffffffffffffffffff1673ffffffffffffffffffffffffffffffffffffffff168152602001908152602001600020805480602002602001604051908101604052809291908181526020016000905b82821015610e7e578382906000526020600020906009020160405180610120016040529081600082015481526020016001820154815260200160028201548152602001600382018054600181600116156101000203166002900480601f016020809104026020016040519081016040528092919081815260200182805460018160011615610100020316600290048015610c5b5780601f10610c3057610100808354040283529160200191610c5b565b820191906000526020600020905b815481529060010190602001808311610c3e57829003601f168201915b50505050508152602001600482018054600181600116156101000203166002900480601f016020809104026020016040519081016040528092919081815260200182805460018160011615610100020316600290048015610cfd5780601f10610cd257610100808354040283529160200191610cfd565b820191906000526020600020905b815481529060010190602001808311610ce057829003601f168201915b505050505081526020016005820160009054906101000a900460ff16151515158152602001600682018054600181600116156101000203166002900480601f016020809104026020016040519081016040528092919081815260200182805460018160011615610100020316600290048015610dba5780601f10610d8f57610100808354040283529160200191610dba565b820191906000526020600020905b815481529060010190602001808311610d9d57829003601f168201915b50505050508152602001600782018054600181600116156101000203166002900480601f016020809104026020016040519081016040528092919081815260200182805460018160011615610100020316600290048015610e5c5780601f10610e3157610100808354040283529160200191610e5c565b820191906000526020600020905b815481529060010190602001808311610e3f57829003601f168201915b5050505050815260200160088201548152505081526020019060010190610b80565b50505050905080915050919050565b600160003373ffffffffffffffffffffffffffffffffffffffff1673ffffffffffffffffffffffffffffffffffffffff168152602001908152602001600020600081548092919060010191905055506000600160003373ffffffffffffffffffffffffffffffffffffffff1673ffffffffffffffffffffffffffffffffffffffff168152602001908152602001600020549050610f28611775565b6040518061012001604052808b81526020018a815260200189815260200188815260200187815260200186151581526020018581526020018481526020018381525090506000803373ffffffffffffffffffffffffffffffffffffffff1673ffffffffffffffffffffffffffffffffffffffff168152602001908152602001600020819080600181540180825580915050600190039060005260206000209060090201600090919091909150600082015181600001556020820151816001015560408201518160020155606082015181600301908051906020019061100e9291906117c3565b50608082015181600401908051906020019061102b9291906117c3565b5060a08201518160050160006101000a81548160ff02191690831515021790555060c08201518160060190805190602001906110689291906117c3565b5060e08201518160070190805190602001906110859291906117c3565b506101008201518160080155505050505050505050505050565b6000806000806000806110b1876113e8565b809650819750829850839950849a50859b5050505050505091939550919395565b60608060286040519080825280601f01601f1916602001820160405280156111095781602001600182028038833980820191505090505b50905060008090505b60148110156112175760008160130360080260020a8573ffffffffffffffffffffffffffffffffffffffff168161114557fe5b0460f81b9050600060108260f81c60ff168161115d57fe5b0460f81b905060008160f81c6010028360f81c0360f81b905061117f82611463565b85856002028151811061118e57fe5b60200101907effffffffffffffffffffffffffffffffffffffffffffffffffffffffffffff1916908160001a9053506111c681611463565b8560018660020201815181106111d857fe5b60200101907effffffffffffffffffffffffffffffffffffffffffffffffffffffffffffff1916908160001a9053505050508080600101915050611112565b5080915050919050565b606061123461122f83611497565b6114c4565b6112456112408461151a565b6114c4565b61125661125185611547565b6114c4565b61126761126286611574565b6114c4565b6112786112738761159a565b6114c4565b611289611284886115be565b6114c4565b60405160200161129e96959493929190611fc3565b6040516020818303038152906040529050919050565b606060008290506000811415611302576040518060400160405280600181526020017f30000000000000000000000000000000000000000000000000000000000000008152509150506113e3565b600081905060005b6000821461132c578080600101915050600a828161132457fe5b04915061130a565b6060816040519080825280601f01601f1916602001820160405280156113615781602001600182028038833980820191505090505b50905060006001830390505b600085146113da57600a858161137f57fe5b0660300160f81b8282806001900393508151811061139957fe5b60200101907effffffffffffffffffffffffffffffffffffffffffffffffffffffffffffff1916908160001a905350600a85816113d257fe5b04945061136d565b81955050505050505b919050565b60008060008060008061140662015180888161140057fe5b046115d2565b809650819750829850505050600062015180888161142057fe5b069050610e10818161142e57fe5b049350610e10818161143c57fe5b069050603c818161144957fe5b049250603c818161145657fe5b0691505091939550919395565b6000600a8260f81c60ff1610156114855760308260f81c0160f81b9050611492565b60578260f81c0160f81b90505b919050565b60008060006114b16201518085816114ab57fe5b046115d2565b8093508194508295505050505050919050565b606080600060099050808411156114e5576114de846112b4565b9150611510565b6114ee846112b4565b6040516020016114fe9190612171565b60405160208183030381529060405291505b8192505050919050565b600080600061153462015180858161152e57fe5b046115d2565b8093508195508294505050505050919050565b600080600061156162015180858161155b57fe5b046115d2565b8095508193508294505050505050919050565b60008062015180838161158357fe5b069050610e10818161159157fe5b04915050919050565b600080610e1083816115a857fe5b069050603c81816115b557fe5b04915050919050565b6000603c82816115ca57fe5b069050919050565b600080600080849050600062253d8c62010bd98301019050600062023ab182600402816115fb57fe5b059050600460038262023ab102018161161057fe5b0582039150600062164b0960018401610fa0028161162a57fe5b059050601f6004826105b5028161163d57fe5b058403019250600061098f846050028161165357fe5b059050600060508261098f028161166657fe5b0585039050600b828161167557fe5b05945084600c0260028301039150848360318603606402010192508298508197508096505050505050509193909250565b828054600181600116156101000203166002900490600052602060002090601f016020900481019282601f106116df578054855561171c565b8280016001018555821561171c57600052602060002091601f016020900482015b8281111561171b578254825591600101919060010190611700565b5b5090506117299190611843565b5090565b50805460018160011615610100020316600290046000825580601f106117535750611772565b601f0160209004906000526020600020908101906117719190611843565b5b50565b60405180610120016040528060008152602001600081526020016000815260200160608152602001606081526020016000151581526020016060815260200160608152602001600081525090565b828054600181600116156101000203166002900490600052602060002090601f016020900481019282601f1061180457805160ff1916838001178555611832565b82800160010185558215611832579182015b82811115611831578251825591602001919060010190611816565b5b50905061183f9190611843565b5090565b61186591905b80821115611861576000816000905550600101611849565b5090565b90565b600081359050611877816123a8565b92915050565b60008135905061188c816123bf565b92915050565b600082601f8301126118a357600080fd5b81356118b66118b182612265565b612238565b915080825260208301602083018583830111156118d257600080fd5b6118dd838284612355565b50505092915050565b6000813590506118f5816123d6565b92915050565b60006020828403121561190d57600080fd5b600061191b84828501611868565b91505092915050565b60006020828403121561193657600080fd5b6000611944848285016118e6565b91505092915050565b600080600080600080600080610100898b03121561196a57600080fd5b60006119788b828c016118e6565b98505060206119898b828c016118e6565b975050604061199a8b828c016118e6565b965050606089013567ffffffffffffffff8111156119b757600080fd5b6119c38b828c01611892565b955050608089013567ffffffffffffffff8111156119e057600080fd5b6119ec8b828c01611892565b94505060a06119fd8b828c0161187d565b93505060c089013567ffffffffffffffff811115611a1a57600080fd5b611a268b828c01611892565b92505060e089013567ffffffffffffffff811115611a4357600080fd5b611a4f8b828c01611892565b9150509295985092959890939650565b6000611a6b8383611e9a565b905092915050565b6000611a7e826122a1565b611a8881856122cf565b935083602082028501611a9a85612291565b8060005b85811015611ad65784840389528151611ab78582611a5f565b9450611ac2836122c2565b925060208a01995050600181019050611a9e565b50829750879550505050505092915050565b611af18161231f565b82525050565b6000611b02826122b7565b611b0c81856122f1565b9350611b1c818560208601612364565b611b2581612397565b840191505092915050565b6000611b3b826122b7565b611b458185612302565b9350611b55818560208601612364565b80840191505092915050565b6000611b6c826122ac565b611b7681856122e0565b9350611b86818560208601612364565b611b8f81612397565b840191505092915050565b6000611ba7600183612302565b91507f30000000000000000000000000000000000000000000000000000000000000006000830152600182019050919050565b6000611be7600183612302565b91507f0a000000000000000000000000000000000000000000000000000000000000006000830152600182019050919050565b6000611c27600883612302565b91507f53554d4d4152593a0000000000000000000000000000000000000000000000006000830152600882019050919050565b6000611c67600583612302565b91507f4454454e440000000000000000000000000000000000000000000000000000006000830152600582019050919050565b6000611ca7600783612302565b91507f44545354415254000000000000000000000000000000000000000000000000006000830152600782019050919050565b6000611ce7600b83612302565b91507f454e443a564556454e540a0000000000000000000000000000000000000000006000830152600b82019050919050565b6000611d27600183612302565b91507f54000000000000000000000000000000000000000000000000000000000000006000830152600182019050919050565b6000611d67600c83612302565b91507f4445534352495054494f4e3a00000000000000000000000000000000000000006000830152600c82019050919050565b6000611da7600883612302565b91507f44545354414d503a0000000000000000000000000000000000000000000000006000830152600882019050919050565b6000611de7600d83612302565b91507f424547494e3a564556454e540a000000000000000000000000000000000000006000830152600d82019050919050565b6000611e27600183612302565b91507f40000000000000000000000000000000000000000000000000000000000000006000830152600182019050919050565b6000611e67600483612302565b91507f5549443a000000000000000000000000000000000000000000000000000000006000830152600482019050919050565b600061012083016000830151611eb36000860182611f74565b506020830151611ec66020860182611f74565b506040830151611ed96040860182611f74565b5060608301518482036060860152611ef18282611b61565b91505060808301518482036080860152611f0b8282611b61565b91505060a0830151611f2060a0860182611ae8565b5060c083015184820360c0860152611f388282611b61565b91505060e083015184820360e0860152611f528282611b61565b915050610100830151611f69610100860182611f74565b508091505092915050565b611f7d8161234b565b82525050565b611f8c8161234b565b82525050565b6000611f9e8286611b30565b9150611faa8285611b30565b9150611fb68284611b30565b9150819050949350505050565b6000611fcf8289611b30565b9150611fdb8288611b30565b9150611fe78287611b30565b9150611ff282611d1a565b9150611ffe8286611b30565b915061200a8285611b30565b91506120168284611b30565b9150819050979650505050505050565b6000612032828f611b30565b915061203d82611dda565b915061204882611d9a565b9150612054828e611b30565b915061205f82611bda565b915061206a82611e5a565b9150612076828d611b30565b915061208182611e1a565b915061208d828c611b30565b915061209882611bda565b91506120a382611c9a565b91506120af828b611b30565b91506120bb828a611b30565b91506120c78289611b30565b91506120d282611bda565b91506120dd82611c5a565b91506120e98288611b30565b91506120f58287611b30565b91506121018286611b30565b915061210c82611bda565b915061211782611c1a565b91506121238285611b30565b915061212e82611bda565b915061213982611d5a565b91506121458284611b30565b915061215082611bda565b915061215b82611cda565b91508190509d9c50505050505050505050505050565b600061217c82611b9a565b91506121888284611b30565b915081905092915050565b600060208201905081810360008301526121ad8184611a73565b905092915050565b600060208201905081810360008301526121cf8184611af7565b905092915050565b600060c0820190506121ec6000830189611f83565b6121f96020830188611f83565b6122066040830187611f83565b6122136060830186611f83565b6122206080830185611f83565b61222d60a0830184611f83565b979650505050505050565b6000604051905081810181811067ffffffffffffffff8211171561225b57600080fd5b8060405250919050565b600067ffffffffffffffff82111561227c57600080fd5b601f19601f8301169050602081019050919050565b6000819050602082019050919050565b600081519050919050565b600081519050919050565b600081519050919050565b6000602082019050919050565b600082825260208201905092915050565b600082825260208201905092915050565b600082825260208201905092915050565b600081905092915050565b60006123188261232b565b9050919050565b60008115159050919050565b600073ffffffffffffffffffffffffffffffffffffffff82169050919050565b6000819050919050565b82818337600083830152505050565b60005b83811015612382578082015181840152602081019050612367565b83811115612391576000848401525b50505050565b6000601f19601f8301169050919050565b6123b18161230d565b81146123bc57600080fd5b50565b6123c88161231f565b81146123d357600080fd5b50565b6123df8161234b565b81146123ea57600080fd5b5056fe424547494e3a5643414c454e4441520a56455253494f4e3a322e300a50524f4449443a2d2f2f70726563696f7573636869636b656e2e636f6d2f2f666f726765742d6d652d626c6f636b2d6574682d63616c0a43414c5343414c453a475245474f5249414e0aa2646970667358221220cad6989244ed54c1a219ea23949543126506ec5fa82ecdc10426f708d349b07064736f6c63430006010033",
  "source": "// SPDX-License-Identifier: MIT\npragma solidity ^0.6.1;\npragma experimental ABIEncoderV2;\n\nimport \"./BokkyPooBahsDateTimeLibrary.sol\";\n\ncontract CalStore  {\n    using BokkyPooBahsDateTimeLibrary for uint;\n\n    struct VEvent {\n        uint dtstamp;\n        uint dtstart;\n        uint dtend;\n        string summary;\n        string description;\n        bool isallday;\n        string alldaystartdate;\n        string alldayenddate;\n        uint uid; // This should by dtstart, plus an id, plus msg.owner Change to string eventually\n    }\n\n    mapping(address => VEvent[]) private store;\n    mapping(address => uint) private count;\n\n\n    function storeEvent(\n        uint _dtstamp, uint _dtstart, uint _dtend,\n        string memory _summary, string memory _description,\n        bool _isallday, string memory _alldaystartdate,\n        string memory _alldayenddate)\n        public\n        {\n        count[msg.sender]++;\n        uint nextId = count[msg.sender];\n        VEvent memory newEvent = VEvent(\n            _dtstamp,\n            _dtstart,\n            _dtend,\n            _summary,\n            _description,\n            _isallday,\n            _alldaystartdate,\n            _alldayenddate,\n            nextId);\n        store[msg.sender].push(newEvent);\n    }\n\n    function justSayHi() public pure returns (string memory) {\n        return \"Hi\";\n    }\n\n    function removeEvent(uint _dtstamp) public {\n        uint storeLen = store[msg.sender].length;\n        for (uint i = 0; i < storeLen; i++) {\n            if (store[msg.sender][i].dtstamp == _dtstamp) {\n                // Move the last element into the place to delete\n                store[msg.sender][i] = store[msg.sender][storeLen - 1];\n                // Remove the last element\n                store[msg.sender].pop();\n                break;\n            }\n        }\n    }\n\n    function timestampToDateTime(uint timestamp) public pure returns (uint year, uint month, uint day, uint hour, uint minute, uint second) {\n        (year, month, day, hour, minute, second) = BokkyPooBahsDateTimeLibrary.timestampToDateTime(timestamp);\n    }\n\n    /// @notice Returns iCal string of message senders previously stored data\n    /// @dev TODO: Return if no events?\n    /// @param _calOwner address of message sender\n    /// @return string iCalendar string iaw RFC 5545\n    function getEventsIcal(address _calOwner) public view returns (string memory) {\n        string memory outputString = \"\";\n        string memory vCalHeader = \"BEGIN:VCALENDAR\\nVERSION:2.0\\nPRODID:-//preciouschicken.com//forget-me-block-eth-cal\\nCALSCALE:GREGORIAN\\n\";\n        string memory vCalFooter = \"END:VCALENDAR\\n\";\n        VEvent[] memory ownerEvent = store[_calOwner];\n        string memory ownerStr = addressToStr(_calOwner);\n\n        for (uint i = 0; i < ownerEvent.length; i++) {\n            string memory dtstamp = unixTimeToStr(ownerEvent[i].dtstamp);\n            string memory uid = uintToStr(ownerEvent[i].uid);\n            string memory summary = ownerEvent[i].summary;\n            string memory description = ownerEvent[i].description;\n            string memory allday;\n            string memory dtstart;\n            string memory dtend;\n            string memory utcmark;\n            if (ownerEvent[i].isallday) {\n                allday = \";VALUE=DATE:\";\n                dtstart = ownerEvent[i].alldaystartdate;\n                dtend = ownerEvent[i].alldayenddate;\n                utcmark = \"\";\n            } else {\n                allday = \":\";\n                dtstart = unixTimeToStr(ownerEvent[i].dtstart);\n                dtend = unixTimeToStr(ownerEvent[i].dtend);\n                utcmark = \"Z\";\n            }\n            outputString = string(\n                abi.encodePacked(outputString,\"BEGIN:VEVENT\\n\",\n                                 \"DTSTAMP:\", dtstamp, \"\\n\",\n                                 \"UID:\", uid, \"@\", ownerStr, \"\\n\",\n                                 \"DTSTART\", allday, dtstart, utcmark, \"\\n\",\n                                 \"DTEND\", allday, dtend, utcmark, \"\\n\",\n                                 \"SUMMARY:\", summary, \"\\n\",\n                                 \"DESCRIPTION:\", description, \"\\n\",\n                                 \"END:VEVENT\\n\"\n                                )\n            );\n        }\n        return string(abi.encodePacked(vCalHeader, outputString, vCalFooter));\n    }\n\n\n    function unixTimeToStr(uint _unixTime) private pure returns (string memory) {\n        return string(\n            abi.encodePacked(\n                leadingZeroAdd(BokkyPooBahsDateTimeLibrary.getYear(_unixTime)),\n                leadingZeroAdd(BokkyPooBahsDateTimeLibrary.getMonth(_unixTime)),\n                leadingZeroAdd(BokkyPooBahsDateTimeLibrary.getDay(_unixTime)),\n                \"T\",\n                leadingZeroAdd(BokkyPooBahsDateTimeLibrary.getHour(_unixTime)),\n                leadingZeroAdd(BokkyPooBahsDateTimeLibrary.getMinute(_unixTime)),\n                leadingZeroAdd(BokkyPooBahsDateTimeLibrary.getSecond(_unixTime))\n        )\n        );\n    }\n\n    function leadingZeroAdd(uint _timePoint) private pure returns (string memory) {\n        string memory timeStr;\n        uint requiresZero = 9; // Time points less than 9 require leading zero\n        if (_timePoint > requiresZero ) {\n            timeStr = uintToStr(_timePoint);\n        } else {\n            timeStr = string(abi.encodePacked(\"0\", uintToStr(_timePoint)));\n        }\n        return timeStr;\n    }\n\n    // Returns all msg for msg.sender, regardless of time\n    function getEventsObj(address _calOwner) public view returns (VEvent[] memory) {\n\n        // Return error if no events\n        VEvent[] memory tempData = store[_calOwner];\n        return tempData;\n    }\n\n    /// @notice converts number to string\n    /// @dev source: https://github.com/provable-things/ethereum-api/blob/master/oraclizeAPI_0.5.sol#L1045\n    /// @param _i integer to convert\n    /// @return _uintAsString string\n    function uintToStr(uint _i) internal pure returns (string memory _uintAsString) {\n        uint number = _i;\n        if (number == 0) {\n            return \"0\";\n        }\n        uint j = number;\n        uint len;\n        while (j != 0) {\n            len++;\n            j /= 10;\n        }\n        bytes memory bstr = new bytes(len);\n        uint k = len - 1;\n        while (number != 0) {\n            bstr[k--] = byte(uint8(48 + number % 10));\n            number /= 10;\n        }\n        return string(bstr);\n    }\n\n    /// @notice converts address to string\n    /// @dev source: https://ethereum.stackexchange.com/a/8447/61217\n    /// @param _add address\n    /// @return string\n    function addressToStr(address _add) internal pure returns (string memory) {\n        bytes memory s = new bytes(40);\n        for (uint i = 0; i < 20; i++) {\n            byte b = byte(uint8(uint(_add) / (2**(8*(19 - i)))));\n            byte hi = byte(uint8(b) / 16);\n            byte lo = byte(uint8(b) - 16 * uint8(hi));\n            s[2*i] = char(hi);\n            s[2*i+1] = char(lo);\n        }\n        return string(s);\n    }\n\n    /// @notice character conversion for addressToStr\n    /// @dev source: https://ethereum.stackexchange.com/a/8447/61217\n    /// @param _b byte\n    /// @return c byte\n    function char(byte _b) internal pure returns (byte c) {\n        if (uint8(_b) < 10) {\n            return byte(uint8(_b) + 0x30);\n        } else {\n            return byte(uint8(_b) + 0x57);\n        }\n    }\n\n}\n\n// CalStore.deployed().then(function(instance) {app = instance})\n// let accounts = await web3.eth.getAccounts()\n\n// app.storeEvent(1595170930, 1596121200, 1596123000, \"Meeting 1\", \"First Meeting\");\n// app.storeEvent(1595171030, 1596290400, 1596295800, \"Meeting 2\", \"Second Meeting\");\n// app.getEventsObj(accounts[0]);\n// app.getEventsIcal(accounts[0]);\n// app.justSayHi();\n\n// get all accounts: web3.eth.getAccounts().then(console.log)\n\n",
  "sourcePath": "/home/gene/Programming/Websites/Precious_Chicken_Website/blog_code_demos/forget-me-block-eth-cal/contracts/CalStore.sol",
  "compiler": {
    "name": "solc",
    "version": "0.6.1+commit.e6f7d5a4.Emscripten.clang"
  },
  "schemaVersion": "3.0.23",
  "updatedAt": "2020-08-10T12:39:17.889Z",
  "networkType": "ethereum",
  "devdoc": {
    "methods": {
      "getEventsIcal(address)": {
        "details": "TODO: Return if no events?",
        "params": {
          "_calOwner": "address of message sender"
        },
        "returns": {
          "_0": "string iCalendar string iaw RFC 5545"
        }
      }
    }
  },
  "userdoc": {
    "methods": {
      "getEventsIcal(address)": {
        "notice": "Returns iCal string of message senders previously stored data"
      }
    }
  }
}