{
  "contractName": "CalStore",
  "abi": [
    {
      "inputs": [
        {
          "internalType": "uint256",
          "name": "_dtstamp",
          "type": "uint256"
        },
        {
          "internalType": "uint256",
          "name": "_dtstart",
          "type": "uint256"
        },
        {
          "internalType": "uint256",
          "name": "_dtend",
          "type": "uint256"
        },
        {
          "internalType": "string",
          "name": "_summary",
          "type": "string"
        },
        {
          "internalType": "string",
          "name": "_description",
          "type": "string"
        }
      ],
      "name": "storeEvent",
      "outputs": [],
      "stateMutability": "nonpayable",
      "type": "function"
    },
    {
      "inputs": [],
      "name": "justSayHi",
      "outputs": [
        {
          "internalType": "string",
          "name": "",
          "type": "string"
        }
      ],
      "stateMutability": "pure",
      "type": "function",
      "constant": true
    },
    {
      "inputs": [
        {
          "internalType": "uint256",
          "name": "_dtstamp",
          "type": "uint256"
        }
      ],
      "name": "removeEvent",
      "outputs": [],
      "stateMutability": "nonpayable",
      "type": "function"
    },
    {
      "inputs": [
        {
          "internalType": "uint256",
          "name": "timestamp",
          "type": "uint256"
        }
      ],
      "name": "timestampToDateTime",
      "outputs": [
        {
          "internalType": "uint256",
          "name": "year",
          "type": "uint256"
        },
        {
          "internalType": "uint256",
          "name": "month",
          "type": "uint256"
        },
        {
          "internalType": "uint256",
          "name": "day",
          "type": "uint256"
        },
        {
          "internalType": "uint256",
          "name": "hour",
          "type": "uint256"
        },
        {
          "internalType": "uint256",
          "name": "minute",
          "type": "uint256"
        },
        {
          "internalType": "uint256",
          "name": "second",
          "type": "uint256"
        }
      ],
      "stateMutability": "pure",
      "type": "function",
      "constant": true
    },
    {
      "inputs": [
        {
          "internalType": "address",
          "name": "_calOwner",
          "type": "address"
        }
      ],
      "name": "getEventsIcal",
      "outputs": [
        {
          "internalType": "string",
          "name": "",
          "type": "string"
        }
      ],
      "stateMutability": "view",
      "type": "function",
      "constant": true
    },
    {
      "inputs": [
        {
          "internalType": "address",
          "name": "_calOwner",
          "type": "address"
        }
      ],
      "name": "getEventsObj",
      "outputs": [
        {
          "components": [
            {
              "internalType": "uint256",
              "name": "dtstamp",
              "type": "uint256"
            },
            {
              "internalType": "uint256",
              "name": "dtstart",
              "type": "uint256"
            },
            {
              "internalType": "uint256",
              "name": "dtend",
              "type": "uint256"
            },
            {
              "internalType": "string",
              "name": "summary",
              "type": "string"
            },
            {
              "internalType": "string",
              "name": "description",
              "type": "string"
            },
            {
              "internalType": "uint256",
              "name": "uid",
              "type": "uint256"
            }
          ],
          "internalType": "struct CalStore.VEvent[]",
          "name": "",
          "type": "tuple[]"
        }
      ],
      "stateMutability": "view",
      "type": "function",
      "constant": true
    }
  ],
  "bytecode": "0x608060405234801561001057600080fd5b50611e3f806100206000396000f3fe608060405234801561001057600080fd5b50600436106100625760003560e01c806310d00a67146100675780632d2de6781461009757806356164e1e146100b55780636d183b02146100d15780637fe6d25714610101578063ea1c16901461011d575b600080fd5b610081600480360361007c91908101906113cc565b610152565b60405161008e9190611b8e565b60405180910390f35b61009f61051a565b6040516100ac9190611b8e565b60405180910390f35b6100cf60048036036100ca91908101906113f5565b610557565b005b6100eb60048036036100e691908101906113cc565b6107f0565b6040516100f89190611b6c565b60405180910390f35b61011b6004803603610116919081019061141e565b6109fe565b005b610137600480360361013291908101906113f5565b610b9d565b60405161014996959493929190611bb0565b60405180910390f35b60608060405180602001604052806000815250905060606040518060a0016040528060668152602001611da460669139905060606040518060400160405280600e81526020017f454e443a5643414c454e4441520a000000000000000000000000000000000000815250905060606000808773ffffffffffffffffffffffffffffffffffffffff1673ffffffffffffffffffffffffffffffffffffffff168152602001908152602001600020805480602002602001604051908101604052809291908181526020016000905b828210156103bc57838290600052602060002090600602016040518060c0016040529081600082015481526020016001820154815260200160028201548152602001600382018054600181600116156101000203166002900480601f0160208091040260200160405190810160405280929190818152602001828054600181600116156101000203166002900480156102f85780601f106102cd576101008083540402835291602001916102f8565b820191906000526020600020905b8154815290600101906020018083116102db57829003601f168201915b50505050508152602001600482018054600181600116156101000203166002900480601f01602080910402602001604051908101604052809291908181526020018280546001816001161561010002031660029004801561039a5780601f1061036f5761010080835404028352916020019161039a565b820191906000526020600020905b81548152906001019060200180831161037d57829003601f168201915b505050505081526020016005820154815250508152602001906001019061021e565b50505050905060606103cd87610bd0565b905060008090505b82518110156104e95760606104008483815181106103ef57fe5b602002602001015160000151610d1f565b9050606061042485848151811061041357fe5b602002602001015160a00151610db2565b9050606061044886858151811061043757fe5b602002602001015160200151610d1f565b9050606061046c87868151811061045b57fe5b602002602001015160400151610d1f565b9050606087868151811061047c57fe5b6020026020010151606001519050606088878151811061049857fe5b60200260200101516080015190508b86868a878787876040516020016104c5989796959493929190611a33565b6040516020818303038152906040529b5050505050505080806001019150506103d5565b508385846040516020016104ff9392919061199f565b60405160208183030381529060405295505050505050919050565b60606040518060400160405280600281526020017f4869000000000000000000000000000000000000000000000000000000000000815250905090565b60008060003373ffffffffffffffffffffffffffffffffffffffff1673ffffffffffffffffffffffffffffffffffffffff16815260200190815260200160002080549050905060008090505b818110156107eb57826000803373ffffffffffffffffffffffffffffffffffffffff1673ffffffffffffffffffffffffffffffffffffffff16815260200190815260200160002082815481106105f557fe5b90600052602060002090600602016000015414156107de576000803373ffffffffffffffffffffffffffffffffffffffff1673ffffffffffffffffffffffffffffffffffffffff168152602001908152602001600020600183038154811061065957fe5b90600052602060002090600602016000803373ffffffffffffffffffffffffffffffffffffffff1673ffffffffffffffffffffffffffffffffffffffff16815260200190815260200160002082815481106106b057fe5b9060005260206000209060060201600082015481600001556001820154816001015560028201548160020155600382018160030190805460018160011615610100020316600290046107039291906111a4565b506004820181600401908054600181600116156101000203166002900461072b9291906111a4565b50600582015481600501559050506000803373ffffffffffffffffffffffffffffffffffffffff1673ffffffffffffffffffffffffffffffffffffffff16815260200190815260200160002080548061078057fe5b6001900381819060005260206000209060060201600080820160009055600182016000905560028201600090556003820160006107bd919061122b565b6004820160006107cd919061122b565b6005820160009055505090556107eb565b80806001019150506105a3565b505050565b6060806000808473ffffffffffffffffffffffffffffffffffffffff1673ffffffffffffffffffffffffffffffffffffffff168152602001908152602001600020805480602002602001604051908101604052809291908181526020016000905b828210156109ef57838290600052602060002090600602016040518060c0016040529081600082015481526020016001820154815260200160028201548152602001600382018054600181600116156101000203166002900480601f01602080910402602001604051908101604052809291908181526020018280546001816001161561010002031660029004801561092b5780601f106109005761010080835404028352916020019161092b565b820191906000526020600020905b81548152906001019060200180831161090e57829003601f168201915b50505050508152602001600482018054600181600116156101000203166002900480601f0160208091040260200160405190810160405280929190818152602001828054600181600116156101000203166002900480156109cd5780601f106109a2576101008083540402835291602001916109cd565b820191906000526020600020905b8154815290600101906020018083116109b057829003601f168201915b5050505050815260200160058201548152505081526020019060010190610851565b50505050905080915050919050565b600160003373ffffffffffffffffffffffffffffffffffffffff1673ffffffffffffffffffffffffffffffffffffffff168152602001908152602001600020600081548092919060010191905055506000600160003373ffffffffffffffffffffffffffffffffffffffff1673ffffffffffffffffffffffffffffffffffffffff168152602001908152602001600020549050610a99611273565b6040518060c001604052808881526020018781526020018681526020018581526020018481526020018381525090506000803373ffffffffffffffffffffffffffffffffffffffff1673ffffffffffffffffffffffffffffffffffffffff1681526020019081526020016000208190806001815401808255809150506001900390600052602060002090600602016000909190919091506000820151816000015560208201518160010155604082015181600201556060820151816003019080519060200190610b6a9291906112a9565b506080820151816004019080519060200190610b879291906112a9565b5060a08201518160050155505050505050505050565b600080600080600080610baf87610ee6565b809650819750829850839950849a50859b5050505050505091939550919395565b60608060286040519080825280601f01601f191660200182016040528015610c075781602001600182028038833980820191505090505b50905060008090505b6014811015610d155760008160130360080260020a8573ffffffffffffffffffffffffffffffffffffffff1681610c4357fe5b0460f81b9050600060108260f81c60ff1681610c5b57fe5b0460f81b905060008160f81c6010028360f81c0360f81b9050610c7d82610f61565b858560020281518110610c8c57fe5b60200101907effffffffffffffffffffffffffffffffffffffffffffffffffffffffffffff1916908160001a905350610cc481610f61565b856001866002020181518110610cd657fe5b60200101907effffffffffffffffffffffffffffffffffffffffffffffffffffffffffffff1916908160001a9053505050508080600101915050610c10565b5080915050919050565b6060610d32610d2d83610f95565b610fc2565b610d43610d3e84611018565b610fc2565b610d54610d4f85611045565b610fc2565b610d65610d6086611072565b610fc2565b610d76610d7187611098565b610fc2565b610d87610d82886110bc565b610fc2565b604051602001610d9c969594939291906119d0565b6040516020818303038152906040529050919050565b606060008290506000811415610e00576040518060400160405280600181526020017f3000000000000000000000000000000000000000000000000000000000000000815250915050610ee1565b600081905060005b60008214610e2a578080600101915050600a8281610e2257fe5b049150610e08565b6060816040519080825280601f01601f191660200182016040528015610e5f5781602001600182028038833980820191505090505b50905060006001830390505b60008514610ed857600a8581610e7d57fe5b0660300160f81b82828060019003935081518110610e9757fe5b60200101907effffffffffffffffffffffffffffffffffffffffffffffffffffffffffffff1916908160001a905350600a8581610ed057fe5b049450610e6b565b81955050505050505b919050565b600080600080600080610f04620151808881610efe57fe5b046110d0565b8096508197508298505050506000620151808881610f1e57fe5b069050610e108181610f2c57fe5b049350610e108181610f3a57fe5b069050603c8181610f4757fe5b049250603c8181610f5457fe5b0691505091939550919395565b6000600a8260f81c60ff161015610f835760308260f81c0160f81b9050610f90565b60578260f81c0160f81b90505b919050565b6000806000610faf620151808581610fa957fe5b046110d0565b8093508194508295505050505050919050565b60608060006009905080841115610fe357610fdc84610db2565b915061100e565b610fec84610db2565b604051602001610ffc9190611b4a565b60405160208183030381529060405291505b8192505050919050565b600080600061103262015180858161102c57fe5b046110d0565b8093508195508294505050505050919050565b600080600061105f62015180858161105957fe5b046110d0565b8095508193508294505050505050919050565b60008062015180838161108157fe5b069050610e10818161108f57fe5b04915050919050565b600080610e1083816110a657fe5b069050603c81816110b357fe5b04915050919050565b6000603c82816110c857fe5b069050919050565b600080600080849050600062253d8c62010bd98301019050600062023ab182600402816110f957fe5b059050600460038262023ab102018161110e57fe5b0582039150600062164b0960018401610fa0028161112857fe5b059050601f6004826105b5028161113b57fe5b058403019250600061098f846050028161115157fe5b059050600060508261098f028161116457fe5b0585039050600b828161117357fe5b05945084600c0260028301039150848360318603606402010192508298508197508096505050505050509193909250565b828054600181600116156101000203166002900490600052602060002090601f016020900481019282601f106111dd578054855561121a565b8280016001018555821561121a57600052602060002091601f016020900482015b828111156112195782548255916001019190600101906111fe565b5b5090506112279190611329565b5090565b50805460018160011615610100020316600290046000825580601f106112515750611270565b601f01602090049060005260206000209081019061126f9190611329565b5b50565b6040518060c001604052806000815260200160008152602001600081526020016060815260200160608152602001600081525090565b828054600181600116156101000203166002900490600052602060002090601f016020900481019282601f106112ea57805160ff1916838001178555611318565b82800160010185558215611318579182015b828111156113175782518255916020019190600101906112fc565b5b5090506113259190611329565b5090565b61134b91905b8082111561134757600081600090555060010161132f565b5090565b90565b60008135905061135d81611d75565b92915050565b600082601f83011261137457600080fd5b813561138761138282611c3e565b611c11565b915080825260208301602083018583830111156113a357600080fd5b6113ae838284611d22565b50505092915050565b6000813590506113c681611d8c565b92915050565b6000602082840312156113de57600080fd5b60006113ec8482850161134e565b91505092915050565b60006020828403121561140757600080fd5b6000611415848285016113b7565b91505092915050565b600080600080600060a0868803121561143657600080fd5b6000611444888289016113b7565b9550506020611455888289016113b7565b9450506040611466888289016113b7565b935050606086013567ffffffffffffffff81111561148357600080fd5b61148f88828901611363565b925050608086013567ffffffffffffffff8111156114ac57600080fd5b6114b888828901611363565b9150509295509295909350565b60006114d183836118f1565b905092915050565b60006114e482611c7a565b6114ee8185611ca8565b93508360208202850161150085611c6a565b8060005b8581101561153c578484038952815161151d85826114c5565b945061152883611c9b565b925060208a01995050600181019050611504565b50829750879550505050505092915050565b600061155982611c90565b6115638185611cca565b9350611573818560208601611d31565b61157c81611d64565b840191505092915050565b600061159282611c90565b61159c8185611cdb565b93506115ac818560208601611d31565b80840191505092915050565b60006115c382611c85565b6115cd8185611cb9565b93506115dd818560208601611d31565b6115e681611d64565b840191505092915050565b60006115fe600183611cdb565b91507f30000000000000000000000000000000000000000000000000000000000000006000830152600182019050919050565b600061163e600183611cdb565b91507f0a000000000000000000000000000000000000000000000000000000000000006000830152600182019050919050565b600061167e600883611cdb565b91507f53554d4d4152593a0000000000000000000000000000000000000000000000006000830152600882019050919050565b60006116be600b83611cdb565b91507f454e443a564556454e540a0000000000000000000000000000000000000000006000830152600b82019050919050565b60006116fe600183611cdb565b91507f54000000000000000000000000000000000000000000000000000000000000006000830152600182019050919050565b600061173e600c83611cdb565b91507f4445534352495054494f4e3a00000000000000000000000000000000000000006000830152600c82019050919050565b600061177e600883611cdb565b91507f44545354414d503a0000000000000000000000000000000000000000000000006000830152600882019050919050565b60006117be600d83611cdb565b91507f424547494e3a564556454e540a000000000000000000000000000000000000006000830152600d82019050919050565b60006117fe600183611cdb565b91507f40000000000000000000000000000000000000000000000000000000000000006000830152600182019050919050565b600061183e600483611cdb565b91507f5549443a000000000000000000000000000000000000000000000000000000006000830152600482019050919050565b600061187e600883611cdb565b91507f445453544152543a0000000000000000000000000000000000000000000000006000830152600882019050919050565b60006118be600683611cdb565b91507f4454454e443a00000000000000000000000000000000000000000000000000006000830152600682019050919050565b600060c0830160008301516119096000860182611981565b50602083015161191c6020860182611981565b50604083015161192f6040860182611981565b506060830151848203606086015261194782826115b8565b9150506080830151848203608086015261196182826115b8565b91505060a083015161197660a0860182611981565b508091505092915050565b61198a81611d18565b82525050565b61199981611d18565b82525050565b60006119ab8286611587565b91506119b78285611587565b91506119c38284611587565b9150819050949350505050565b60006119dc8289611587565b91506119e88288611587565b91506119f48287611587565b91506119ff826116f1565b9150611a0b8286611587565b9150611a178285611587565b9150611a238284611587565b9150819050979650505050505050565b6000611a3f828b611587565b9150611a4a826117b1565b9150611a5582611771565b9150611a61828a611587565b9150611a6c82611631565b9150611a7782611831565b9150611a838289611587565b9150611a8e826117f1565b9150611a9a8288611587565b9150611aa582611631565b9150611ab082611871565b9150611abc8287611587565b9150611ac782611631565b9150611ad2826118b1565b9150611ade8286611587565b9150611ae982611631565b9150611af482611671565b9150611b008285611587565b9150611b0b82611631565b9150611b1682611731565b9150611b228284611587565b9150611b2d82611631565b9150611b38826116b1565b91508190509998505050505050505050565b6000611b55826115f1565b9150611b618284611587565b915081905092915050565b60006020820190508181036000830152611b8681846114d9565b905092915050565b60006020820190508181036000830152611ba8818461154e565b905092915050565b600060c082019050611bc56000830189611990565b611bd26020830188611990565b611bdf6040830187611990565b611bec6060830186611990565b611bf96080830185611990565b611c0660a0830184611990565b979650505050505050565b6000604051905081810181811067ffffffffffffffff82111715611c3457600080fd5b8060405250919050565b600067ffffffffffffffff821115611c5557600080fd5b601f19601f8301169050602081019050919050565b6000819050602082019050919050565b600081519050919050565b600081519050919050565b600081519050919050565b6000602082019050919050565b600082825260208201905092915050565b600082825260208201905092915050565b600082825260208201905092915050565b600081905092915050565b6000611cf182611cf8565b9050919050565b600073ffffffffffffffffffffffffffffffffffffffff82169050919050565b6000819050919050565b82818337600083830152505050565b60005b83811015611d4f578082015181840152602081019050611d34565b83811115611d5e576000848401525b50505050565b6000601f19601f8301169050919050565b611d7e81611ce6565b8114611d8957600080fd5b50565b611d9581611d18565b8114611da057600080fd5b5056fe424547494e3a5643414c454e4441520a56455253494f4e3a322e300a50524f4449443a2d2f2f70726563696f7573636869636b656e2e636f6d2f2f666f726765742d6d652d626c6f636b2d6574682d63616c0a43414c5343414c453a475245474f5249414e0aa2646970667358221220a98202a6cc893dd20ef73c9b3c0686f6c41fd0c9908199816f2f5a064944575f64736f6c63430006010033",
  "source": "// SPDX-License-Identifier: MIT\npragma solidity ^0.6.1;\npragma experimental ABIEncoderV2;\n\nimport \"./BokkyPooBahsDateTimeLibrary.sol\";\n\ncontract CalStore  {\n    using BokkyPooBahsDateTimeLibrary for uint;\n\n    struct VEvent {\n        uint dtstamp;\n        uint dtstart;\n        uint dtend;\n        string summary;\n        string description;\n        uint uid; // This should by dtstart, plus an id, plus msg.owner Change to string eventually\n    }\n\n    mapping(address => VEvent[]) private store;\n    mapping(address => uint) private count;\n\n    function storeEvent(uint _dtstamp, uint _dtstart, uint _dtend, string memory _summary, string memory _description) public {\n        count[msg.sender]++;\n        uint nextId = count[msg.sender];\n        VEvent memory newEvent = VEvent(_dtstamp, _dtstart, _dtend, _summary, _description, nextId);\n        store[msg.sender].push(newEvent);\n    }\n    function justSayHi() public pure returns (string memory) {\n        return \"Hi\";\n    }\n\n    function removeEvent(uint _dtstamp) public {\n        uint storeLen = store[msg.sender].length;\n        for (uint i = 0; i < storeLen; i++) {\n            if (store[msg.sender][i].dtstamp == _dtstamp) {\n                // Move the last element into the place to delete\n                store[msg.sender][i] = store[msg.sender][storeLen - 1];\n                // Remove the last element\n                store[msg.sender].pop();\n                break;\n            }\n        }\n    }\n\n    function timestampToDateTime(uint timestamp) public pure returns (uint year, uint month, uint day, uint hour, uint minute, uint second) {\n        (year, month, day, hour, minute, second) = BokkyPooBahsDateTimeLibrary.timestampToDateTime(timestamp);\n    }\n\n    /// @notice Returns iCal string of message senders previously stored data\n    /// @dev TODO: Return if no events?\n    /// @param _calOwner address of message sender\n    /// @return string iCalendar string iaw RFC 5545\n    function getEventsIcal(address _calOwner) public view returns (string memory) {\n        string memory outputString = \"\";\n        string memory vCalHeader = \"BEGIN:VCALENDAR\\nVERSION:2.0\\nPRODID:-//preciouschicken.com//forget-me-block-eth-cal\\nCALSCALE:GREGORIAN\\n\";\n        string memory vCalFooter = \"END:VCALENDAR\\n\";\n        VEvent[] memory ownerEvent = store[_calOwner];\n        string memory ownerStr = addressToStr(_calOwner);\n\n        for (uint i = 0; i < ownerEvent.length; i++) {\n            string memory dtstamp = unixTimeToStr(ownerEvent[i].dtstamp);\n            string memory uid = uintToStr(ownerEvent[i].uid);\n            string memory dtstart = unixTimeToStr(ownerEvent[i].dtstart);\n            string memory dtend = unixTimeToStr(ownerEvent[i].dtend);\n            string memory summary = ownerEvent[i].summary;\n            string memory description = ownerEvent[i].description;\n            outputString = string(\n                abi.encodePacked(outputString,\"BEGIN:VEVENT\\n\",\n                                 \"DTSTAMP:\", dtstamp, \"\\n\",\n                                 \"UID:\", uid, \"@\", ownerStr, \"\\n\",\n                                 \"DTSTART:\", dtstart, \"\\n\",\n                                 \"DTEND:\", dtend, \"\\n\",\n                                 \"SUMMARY:\", summary, \"\\n\",\n                                 \"DESCRIPTION:\", description, \"\\n\",\n                                 \"END:VEVENT\\n\"\n                                )\n            );\n        }\n        return string(abi.encodePacked(vCalHeader, outputString, vCalFooter));\n    }\n\n\n    function unixTimeToStr(uint _unixTime) private pure returns (string memory) {\n        return string(\n            abi.encodePacked(\n                leadingZeroAdd(BokkyPooBahsDateTimeLibrary.getYear(_unixTime)),\n                leadingZeroAdd(BokkyPooBahsDateTimeLibrary.getMonth(_unixTime)),\n                leadingZeroAdd(BokkyPooBahsDateTimeLibrary.getDay(_unixTime)),\n                \"T\",\n                leadingZeroAdd(BokkyPooBahsDateTimeLibrary.getHour(_unixTime)),\n                leadingZeroAdd(BokkyPooBahsDateTimeLibrary.getMinute(_unixTime)),\n                leadingZeroAdd(BokkyPooBahsDateTimeLibrary.getSecond(_unixTime))\n        )\n        );\n    }\n\n    function leadingZeroAdd(uint _timePoint) private pure returns (string memory) {\n        string memory timeStr;\n        uint requiresZero = 9; // Time points less than 9 require leading zero\n        if (_timePoint > requiresZero ) {\n            timeStr = uintToStr(_timePoint);\n        } else {\n            timeStr = string(abi.encodePacked(\"0\", uintToStr(_timePoint)));\n        }\n        return timeStr;\n    }\n\n    // Returns all msg for msg.sender, regardless of time\n    function getEventsObj(address _calOwner) public view returns (VEvent[] memory) {\n\n        // Return error if no events\n        VEvent[] memory tempData = store[_calOwner];\n        return tempData;\n    }\n\n    /// @notice converts number to string\n    /// @dev source: https://github.com/provable-things/ethereum-api/blob/master/oraclizeAPI_0.5.sol#L1045\n    /// @param _i integer to convert\n    /// @return _uintAsString string\n    function uintToStr(uint _i) internal pure returns (string memory _uintAsString) {\n        uint number = _i;\n        if (number == 0) {\n            return \"0\";\n        }\n        uint j = number;\n        uint len;\n        while (j != 0) {\n            len++;\n            j /= 10;\n        }\n        bytes memory bstr = new bytes(len);\n        uint k = len - 1;\n        while (number != 0) {\n            bstr[k--] = byte(uint8(48 + number % 10));\n            number /= 10;\n        }\n        return string(bstr);\n    }\n\n    /// @notice converts address to string\n    /// @dev source: https://ethereum.stackexchange.com/a/8447/61217\n    /// @param _add address\n    /// @return string\n    function addressToStr(address _add) internal pure returns (string memory) {\n        bytes memory s = new bytes(40);\n        for (uint i = 0; i < 20; i++) {\n            byte b = byte(uint8(uint(_add) / (2**(8*(19 - i)))));\n            byte hi = byte(uint8(b) / 16);\n            byte lo = byte(uint8(b) - 16 * uint8(hi));\n            s[2*i] = char(hi);\n            s[2*i+1] = char(lo);\n        }\n        return string(s);\n    }\n\n    /// @notice character conversion for addressToStr\n    /// @dev source: https://ethereum.stackexchange.com/a/8447/61217\n    /// @param _b byte\n    /// @return c byte\n    function char(byte _b) internal pure returns (byte c) {\n        if (uint8(_b) < 10) {\n            return byte(uint8(_b) + 0x30);\n        } else {\n            return byte(uint8(_b) + 0x57);\n        }\n    }\n\n}\n\n// CalStore.deployed().then(function(instance) {app = instance})\n// let accounts = await web3.eth.getAccounts()\n\n// app.storeEvent(1595170930, 1596121200, 1596123000, \"Meeting 1\", \"First Meeting\");\n// app.storeEvent(1595171030, 1596290400, 1596295800, \"Meeting 2\", \"Second Meeting\");\n// app.getEventsObj(accounts[0]);\n// app.getEventsIcal('0xE65616E1197298060479799B225a02D06005CA14');\n// app.justSayHi();\n\n// get all accounts: web3.eth.getAccounts().then(console.log)\n\n",
  "sourcePath": "/home/gene/Programming/Websites/Precious_Chicken_Website/blog_code_demos/forget-me-block-eth-cal/contracts/CalStore.sol",
  "compiler": {
    "name": "solc",
    "version": "0.6.1+commit.e6f7d5a4.Emscripten.clang"
  },
  "schemaVersion": "3.0.23",
  "updatedAt": "2020-08-08T15:01:09.787Z",
  "networkType": "ethereum",
  "devdoc": {
    "methods": {
      "getEventsIcal(address)": {
        "details": "TODO: Return if no events?",
        "params": {
          "_calOwner": "address of message sender"
        },
        "returns": {
          "_0": "string iCalendar string iaw RFC 5545"
        }
      }
    }
  },
  "userdoc": {
    "methods": {
      "getEventsIcal(address)": {
        "notice": "Returns iCal string of message senders previously stored data"
      }
    }
  }
}