{
  "contractName": "CalStore",
  "abi": [
    {
      "inputs": [
        {
          "internalType": "uint256",
          "name": "_dtstamp",
          "type": "uint256"
        },
        {
          "internalType": "uint256",
          "name": "_dtstart",
          "type": "uint256"
        },
        {
          "internalType": "uint256",
          "name": "_dtend",
          "type": "uint256"
        },
        {
          "internalType": "string",
          "name": "_summary",
          "type": "string"
        },
        {
          "internalType": "string",
          "name": "_description",
          "type": "string"
        }
      ],
      "name": "storeEvent",
      "outputs": [],
      "stateMutability": "nonpayable",
      "type": "function"
    },
    {
      "inputs": [],
      "name": "justSayHi",
      "outputs": [
        {
          "internalType": "string",
          "name": "",
          "type": "string"
        }
      ],
      "stateMutability": "pure",
      "type": "function",
      "constant": true
    },
    {
      "inputs": [
        {
          "internalType": "address",
          "name": "_calOwner",
          "type": "address"
        }
      ],
      "name": "getEvents",
      "outputs": [
        {
          "components": [
            {
              "internalType": "uint256",
              "name": "dtstamp",
              "type": "uint256"
            },
            {
              "internalType": "uint256",
              "name": "dtstart",
              "type": "uint256"
            },
            {
              "internalType": "uint256",
              "name": "dtend",
              "type": "uint256"
            },
            {
              "internalType": "string",
              "name": "summary",
              "type": "string"
            },
            {
              "internalType": "string",
              "name": "description",
              "type": "string"
            },
            {
              "internalType": "uint256",
              "name": "uid",
              "type": "uint256"
            }
          ],
          "internalType": "struct CalStore.VEvent[]",
          "name": "",
          "type": "tuple[]"
        }
      ],
      "stateMutability": "view",
      "type": "function",
      "constant": true
    }
  ],
  "bytecode": "0x608060405234801561001057600080fd5b50610ded806100206000396000f3fe608060405234801561001057600080fd5b50600436106100415760003560e01c80632d2de678146100465780637fe6d25714610064578063a4c8b6e314610080575b600080fd5b61004e6100b0565b60405161005b9190610c0e565b60405180910390f35b61007e600480360361007991908101906109ab565b6100ed565b005b61009a60048036036100959190810190610982565b61041c565b6040516100a79190610bec565b60405180910390f35b60606040518060400160405280600281526020017f4869000000000000000000000000000000000000000000000000000000000000815250905090565b6060600160003373ffffffffffffffffffffffffffffffffffffffff1673ffffffffffffffffffffffffffffffffffffffff168152602001908152602001600020805480602002602001604051908101604052809291908181526020016000905b828210156102ec57838290600052602060002090600602016040518060c0016040529081600082015481526020016001820154815260200160028201548152602001600382018054600181600116156101000203166002900480601f0160208091040260200160405190810160405280929190818152602001828054600181600116156101000203166002900480156102285780601f106101fd57610100808354040283529160200191610228565b820191906000526020600020905b81548152906001019060200180831161020b57829003601f168201915b50505050508152602001600482018054600181600116156101000203166002900480601f0160208091040260200160405190810160405280929190818152602001828054600181600116156101000203166002900480156102ca5780601f1061029f576101008083540402835291602001916102ca565b820191906000526020600020905b8154815290600101906020018083116102ad57829003601f168201915b505050505081526020016005820154815250508152602001906001019061014e565b50505050905060006001825101905061030361062b565b6040518060c0016040528089815260200188815260200187815260200186815260200185815260200183815250905060008190806001815401808255809150506001900390600052602060002090600602016000909190919091506000820151816000015560208201518160010155604082015181600201556060820151816003019080519060200190610398929190610661565b5060808201518160040190805190602001906103b5929190610661565b5060a0820151816005015550506000600160003373ffffffffffffffffffffffffffffffffffffffff1673ffffffffffffffffffffffffffffffffffffffff1681526020019081526020016000209080546104119291906106e1565b505050505050505050565b606080600160008473ffffffffffffffffffffffffffffffffffffffff1673ffffffffffffffffffffffffffffffffffffffff168152602001908152602001600020805480602002602001604051908101604052809291908181526020016000905b8282101561061c57838290600052602060002090600602016040518060c0016040529081600082015481526020016001820154815260200160028201548152602001600382018054600181600116156101000203166002900480601f0160208091040260200160405190810160405280929190818152602001828054600181600116156101000203166002900480156105585780601f1061052d57610100808354040283529160200191610558565b820191906000526020600020905b81548152906001019060200180831161053b57829003601f168201915b50505050508152602001600482018054600181600116156101000203166002900480601f0160208091040260200160405190810160405280929190818152602001828054600181600116156101000203166002900480156105fa5780601f106105cf576101008083540402835291602001916105fa565b820191906000526020600020905b8154815290600101906020018083116105dd57829003601f168201915b505050505081526020016005820154815250508152602001906001019061047e565b50505050905080915050919050565b6040518060c001604052806000815260200160008152602001600081526020016060815260200160608152602001600081525090565b828054600181600116156101000203166002900490600052602060002090601f016020900481019282601f106106a257805160ff19168380011785556106d0565b828001600101855582156106d0579182015b828111156106cf5782518255916020019190600101906106b4565b5b5090506106dd91906107b1565b5090565b8280548282559060005260206000209060060281019282156107a05760005260206000209160060282015b8281111561079f5782826000820154816000015560018201548160010155600282015481600201556003820181600301908054600181600116156101000203166002900461075b9291906107d6565b50600482018160040190805460018160011615610100020316600290046107839291906107d6565b506005820154816005015550509160060191906006019061070c565b5b5090506107ad919061085d565b5090565b6107d391905b808211156107cf5760008160009055506001016107b7565b5090565b90565b828054600181600116156101000203166002900490600052602060002090601f016020900481019282601f1061080f578054855561084c565b8280016001018555821561084c57600052602060002091601f016020900482015b8281111561084b578254825591600101919060010190610830565b5b50905061085991906107b1565b5090565b6108b991905b808211156108b5576000808201600090556001820160009055600282016000905560038201600061089491906108bc565b6004820160006108a491906108bc565b600582016000905550600601610863565b5090565b90565b50805460018160011615610100020316600290046000825580601f106108e25750610901565b601f01602090049060005260206000209081019061090091906107b1565b5b50565b60008135905061091381610d89565b92915050565b600082601f83011261092a57600080fd5b813561093d61093882610c5d565b610c30565b9150808252602083016020830185838301111561095957600080fd5b610964838284610d36565b50505092915050565b60008135905061097c81610da0565b92915050565b60006020828403121561099457600080fd5b60006109a284828501610904565b91505092915050565b600080600080600060a086880312156109c357600080fd5b60006109d18882890161096d565b95505060206109e28882890161096d565b94505060406109f38882890161096d565b935050606086013567ffffffffffffffff811115610a1057600080fd5b610a1c88828901610919565b925050608086013567ffffffffffffffff811115610a3957600080fd5b610a4588828901610919565b9150509295509295909350565b6000610a5e8383610b4d565b905092915050565b6000610a7182610c99565b610a7b8185610cc7565b935083602082028501610a8d85610c89565b8060005b85811015610ac95784840389528151610aaa8582610a52565b9450610ab583610cba565b925060208a01995050600181019050610a91565b50829750879550505050505092915050565b6000610ae682610caf565b610af08185610ce9565b9350610b00818560208601610d45565b610b0981610d78565b840191505092915050565b6000610b1f82610ca4565b610b298185610cd8565b9350610b39818560208601610d45565b610b4281610d78565b840191505092915050565b600060c083016000830151610b656000860182610bdd565b506020830151610b786020860182610bdd565b506040830151610b8b6040860182610bdd565b5060608301518482036060860152610ba38282610b14565b91505060808301518482036080860152610bbd8282610b14565b91505060a0830151610bd260a0860182610bdd565b508091505092915050565b610be681610d2c565b82525050565b60006020820190508181036000830152610c068184610a66565b905092915050565b60006020820190508181036000830152610c288184610adb565b905092915050565b6000604051905081810181811067ffffffffffffffff82111715610c5357600080fd5b8060405250919050565b600067ffffffffffffffff821115610c7457600080fd5b601f19601f8301169050602081019050919050565b6000819050602082019050919050565b600081519050919050565b600081519050919050565b600081519050919050565b6000602082019050919050565b600082825260208201905092915050565b600082825260208201905092915050565b600082825260208201905092915050565b6000610d0582610d0c565b9050919050565b600073ffffffffffffffffffffffffffffffffffffffff82169050919050565b6000819050919050565b82818337600083830152505050565b60005b83811015610d63578082015181840152602081019050610d48565b83811115610d72576000848401525b50505050565b6000601f19601f8301169050919050565b610d9281610cfa565b8114610d9d57600080fd5b50565b610da981610d2c565b8114610db457600080fd5b5056fea2646970667358221220da06b4e29576892efe8a22cee67493b00c0c1b1e1c3db5650eb43312a878958264736f6c63430006010033",
  "source": "// SPDX-License-Identifier: MIT\npragma solidity ^0.6.1;\npragma experimental ABIEncoderV2;\n\ncontract CalStore  {\n\n    struct VEvent {\n        uint dtstamp;\n        uint dtstart;\n        uint dtend;\n        string summary;\n        string description;\n        uint uid; // This should by dtstart, plus an id, plus msg.owner Change to string eventually\n    }\n\n    VEvent[] private userVEvent;\n    mapping(address => VEvent[]) private store;\n\n    function storeEvent(uint _dtstamp, uint _dtstart, uint _dtend, string memory _summary, string memory _description) public {\n        VEvent[] memory currentData = store[msg.sender];\n        uint nextId = currentData.length + 1;\n        VEvent memory newData = VEvent(_dtstamp, _dtstart, _dtend, _summary, _description, nextId);\n        userVEvent.push(newData);\n        store[msg.sender] = userVEvent;\n    }\n    function justSayHi() public pure returns (string memory) {\n        return \"Hi\";\n    }\n\n\n    // Returns all msg for msg.sender, regardless of time\n    function getEvents(address _calOwner) public view returns (VEvent[] memory) {\n\n        // Return error if no events\n        VEvent[] memory tempData = store[_calOwner];\n        return tempData;\n    }\n}\n\n// CalStore.deployed().then(function(instance) {app = instance})\n// app.storeEvent(1595170930, 1596121200, 1596123000, \"Meeting 1\", \"First Meeting\");\n// app.storeEvent(1595171030, 1596290400, 1596295800, \"Meeting 2\", \"Second Meeting\");\n// app.getEvents('0x43126483FA825ED8F9E8a75Bee4CC57Ba1f2cFa2');\n// app.justSayHi();\n",
  "sourcePath": "/home/gene/Programming/Websites/Precious_Chicken_Website/blog_code_demos/forget-me-block-eth-cal/contracts/CalStore.sol",
  "compiler": {
    "name": "solc",
    "version": "0.6.1+commit.e6f7d5a4.Emscripten.clang"
  },
  "schemaVersion": "3.0.23",
  "updatedAt": "2020-07-22T20:03:30.785Z",
  "networkType": "ethereum",
  "devdoc": {
    "methods": {}
  },
  "userdoc": {
    "methods": {}
  }
}