{
  "contractName": "CalStore",
  "abi": [
    {
      "inputs": [
        {
          "internalType": "uint256",
          "name": "_dtstamp",
          "type": "uint256"
        },
        {
          "internalType": "uint256",
          "name": "_dtstart",
          "type": "uint256"
        },
        {
          "internalType": "uint256",
          "name": "_dtend",
          "type": "uint256"
        },
        {
          "internalType": "string",
          "name": "_summary",
          "type": "string"
        },
        {
          "internalType": "string",
          "name": "_description",
          "type": "string"
        },
        {
          "internalType": "bool",
          "name": "_isallday",
          "type": "bool"
        }
      ],
      "name": "storeEvent",
      "outputs": [],
      "stateMutability": "nonpayable",
      "type": "function"
    },
    {
      "inputs": [],
      "name": "justSayHi",
      "outputs": [
        {
          "internalType": "string",
          "name": "",
          "type": "string"
        }
      ],
      "stateMutability": "pure",
      "type": "function",
      "constant": true
    },
    {
      "inputs": [
        {
          "internalType": "uint256",
          "name": "_dtstamp",
          "type": "uint256"
        }
      ],
      "name": "removeEvent",
      "outputs": [],
      "stateMutability": "nonpayable",
      "type": "function"
    },
    {
      "inputs": [
        {
          "internalType": "uint256",
          "name": "timestamp",
          "type": "uint256"
        }
      ],
      "name": "timestampToDateTime",
      "outputs": [
        {
          "internalType": "uint256",
          "name": "year",
          "type": "uint256"
        },
        {
          "internalType": "uint256",
          "name": "month",
          "type": "uint256"
        },
        {
          "internalType": "uint256",
          "name": "day",
          "type": "uint256"
        },
        {
          "internalType": "uint256",
          "name": "hour",
          "type": "uint256"
        },
        {
          "internalType": "uint256",
          "name": "minute",
          "type": "uint256"
        },
        {
          "internalType": "uint256",
          "name": "second",
          "type": "uint256"
        }
      ],
      "stateMutability": "pure",
      "type": "function",
      "constant": true
    },
    {
      "inputs": [
        {
          "internalType": "address",
          "name": "_calOwner",
          "type": "address"
        }
      ],
      "name": "getEventsIcal",
      "outputs": [
        {
          "internalType": "string",
          "name": "",
          "type": "string"
        }
      ],
      "stateMutability": "view",
      "type": "function",
      "constant": true
    },
    {
      "inputs": [
        {
          "internalType": "address",
          "name": "_calOwner",
          "type": "address"
        }
      ],
      "name": "getEventsObj",
      "outputs": [
        {
          "components": [
            {
              "internalType": "uint256",
              "name": "dtstamp",
              "type": "uint256"
            },
            {
              "internalType": "uint256",
              "name": "dtstart",
              "type": "uint256"
            },
            {
              "internalType": "uint256",
              "name": "dtend",
              "type": "uint256"
            },
            {
              "internalType": "string",
              "name": "summary",
              "type": "string"
            },
            {
              "internalType": "string",
              "name": "description",
              "type": "string"
            },
            {
              "internalType": "bool",
              "name": "isallday",
              "type": "bool"
            },
            {
              "internalType": "uint256",
              "name": "uid",
              "type": "uint256"
            }
          ],
          "internalType": "struct CalStore.VEvent[]",
          "name": "",
          "type": "tuple[]"
        }
      ],
      "stateMutability": "view",
      "type": "function",
      "constant": true
    }
  ],
  "bytecode": "0x608060405234801561001057600080fd5b50611f54806100206000396000f3fe608060405234801561001057600080fd5b50600436106100625760003560e01c806310d00a67146100675780632d2de6781461009757806356164e1e146100b55780636d183b02146100d1578063ea1c169014610101578063ef2644ac14610136575b600080fd5b610081600480360361007c919081019061148a565b610152565b60405161008e9190611c80565b60405180910390f35b61009f610535565b6040516100ac9190611c80565b60405180910390f35b6100cf60048036036100ca91908101906114b3565b610572565b005b6100eb60048036036100e6919081019061148a565b61084c565b6040516100f89190611c5e565b60405180910390f35b61011b600480360361011691908101906114b3565b610a75565b60405161012d96959493929190611ca2565b60405180910390f35b610150600480360361014b91908101906114dc565b610aa8565b005b60608060405180602001604052806000815250905060606040518060a0016040528060668152602001611eb960669139905060606040518060400160405280600e81526020017f454e443a5643414c454e4441520a000000000000000000000000000000000000815250905060606000808773ffffffffffffffffffffffffffffffffffffffff1673ffffffffffffffffffffffffffffffffffffffff168152602001908152602001600020805480602002602001604051908101604052809291908181526020016000905b828210156103d757838290600052602060002090600702016040518060e0016040529081600082015481526020016001820154815260200160028201548152602001600382018054600181600116156101000203166002900480601f0160208091040260200160405190810160405280929190818152602001828054600181600116156101000203166002900480156102f85780601f106102cd576101008083540402835291602001916102f8565b820191906000526020600020905b8154815290600101906020018083116102db57829003601f168201915b50505050508152602001600482018054600181600116156101000203166002900480601f01602080910402602001604051908101604052809291908181526020018280546001816001161561010002031660029004801561039a5780601f1061036f5761010080835404028352916020019161039a565b820191906000526020600020905b81548152906001019060200180831161037d57829003601f168201915b505050505081526020016005820160009054906101000a900460ff161515151581526020016006820154815250508152602001906001019061021e565b50505050905060606103e887610c70565b905060008090505b825181101561050457606061041b84838151811061040a57fe5b602002602001015160000151610dbf565b9050606061043f85848151811061042e57fe5b602002602001015160c00151610e52565b9050606061046386858151811061045257fe5b602002602001015160200151610dbf565b9050606061048787868151811061047657fe5b602002602001015160400151610dbf565b9050606087868151811061049757fe5b602002602001015160600151905060608887815181106104b357fe5b60200260200101516080015190508b86868a878787876040516020016104e0989796959493929190611b25565b6040516020818303038152906040529b5050505050505080806001019150506103f0565b5083858460405160200161051a93929190611a91565b60405160208183030381529060405295505050505050919050565b60606040518060400160405280600281526020017f4869000000000000000000000000000000000000000000000000000000000000815250905090565b60008060003373ffffffffffffffffffffffffffffffffffffffff1673ffffffffffffffffffffffffffffffffffffffff16815260200190815260200160002080549050905060008090505b8181101561084757826000803373ffffffffffffffffffffffffffffffffffffffff1673ffffffffffffffffffffffffffffffffffffffff168152602001908152602001600020828154811061061057fe5b906000526020600020906007020160000154141561083a576000803373ffffffffffffffffffffffffffffffffffffffff1673ffffffffffffffffffffffffffffffffffffffff168152602001908152602001600020600183038154811061067457fe5b90600052602060002090600702016000803373ffffffffffffffffffffffffffffffffffffffff1673ffffffffffffffffffffffffffffffffffffffff16815260200190815260200160002082815481106106cb57fe5b90600052602060002090600702016000820154816000015560018201548160010155600282015481600201556003820181600301908054600181600116156101000203166002900461071e929190611244565b5060048201816004019080546001816001161561010002031660029004610746929190611244565b506005820160009054906101000a900460ff168160050160006101000a81548160ff021916908315150217905550600682015481600601559050506000803373ffffffffffffffffffffffffffffffffffffffff1673ffffffffffffffffffffffffffffffffffffffff1681526020019081526020016000208054806107c857fe5b60019003818190600052602060002090600702016000808201600090556001820160009055600282016000905560038201600061080591906112cb565b60048201600061081591906112cb565b6005820160006101000a81549060ff0219169055600682016000905550509055610847565b80806001019150506105be565b505050565b6060806000808473ffffffffffffffffffffffffffffffffffffffff1673ffffffffffffffffffffffffffffffffffffffff168152602001908152602001600020805480602002602001604051908101604052809291908181526020016000905b82821015610a6657838290600052602060002090600702016040518060e0016040529081600082015481526020016001820154815260200160028201548152602001600382018054600181600116156101000203166002900480601f0160208091040260200160405190810160405280929190818152602001828054600181600116156101000203166002900480156109875780601f1061095c57610100808354040283529160200191610987565b820191906000526020600020905b81548152906001019060200180831161096a57829003601f168201915b50505050508152602001600482018054600181600116156101000203166002900480601f016020809104026020016040519081016040528092919081815260200182805460018160011615610100020316600290048015610a295780601f106109fe57610100808354040283529160200191610a29565b820191906000526020600020905b815481529060010190602001808311610a0c57829003601f168201915b505050505081526020016005820160009054906101000a900460ff16151515158152602001600682015481525050815260200190600101906108ad565b50505050905080915050919050565b600080600080600080610a8787610f86565b809650819750829850839950849a50859b5050505050505091939550919395565b600160003373ffffffffffffffffffffffffffffffffffffffff1673ffffffffffffffffffffffffffffffffffffffff168152602001908152602001600020600081548092919060010191905055506000600160003373ffffffffffffffffffffffffffffffffffffffff1673ffffffffffffffffffffffffffffffffffffffff168152602001908152602001600020549050610b43611313565b6040518060e0016040528089815260200188815260200187815260200186815260200185815260200184151581526020018381525090506000803373ffffffffffffffffffffffffffffffffffffffff1673ffffffffffffffffffffffffffffffffffffffff1681526020019081526020016000208190806001815401808255809150506001900390600052602060002090600702016000909190919091506000820151816000015560208201518160010155604082015181600201556060820151816003019080519060200190610c1c929190611352565b506080820151816004019080519060200190610c39929190611352565b5060a08201518160050160006101000a81548160ff02191690831515021790555060c0820151816006015550505050505050505050565b60608060286040519080825280601f01601f191660200182016040528015610ca75781602001600182028038833980820191505090505b50905060008090505b6014811015610db55760008160130360080260020a8573ffffffffffffffffffffffffffffffffffffffff1681610ce357fe5b0460f81b9050600060108260f81c60ff1681610cfb57fe5b0460f81b905060008160f81c6010028360f81c0360f81b9050610d1d82611001565b858560020281518110610d2c57fe5b60200101907effffffffffffffffffffffffffffffffffffffffffffffffffffffffffffff1916908160001a905350610d6481611001565b856001866002020181518110610d7657fe5b60200101907effffffffffffffffffffffffffffffffffffffffffffffffffffffffffffff1916908160001a9053505050508080600101915050610cb0565b5080915050919050565b6060610dd2610dcd83611035565b611062565b610de3610dde846110b8565b611062565b610df4610def856110e5565b611062565b610e05610e0086611112565b611062565b610e16610e1187611138565b611062565b610e27610e228861115c565b611062565b604051602001610e3c96959493929190611ac2565b6040516020818303038152906040529050919050565b606060008290506000811415610ea0576040518060400160405280600181526020017f3000000000000000000000000000000000000000000000000000000000000000815250915050610f81565b600081905060005b60008214610eca578080600101915050600a8281610ec257fe5b049150610ea8565b6060816040519080825280601f01601f191660200182016040528015610eff5781602001600182028038833980820191505090505b50905060006001830390505b60008514610f7857600a8581610f1d57fe5b0660300160f81b82828060019003935081518110610f3757fe5b60200101907effffffffffffffffffffffffffffffffffffffffffffffffffffffffffffff1916908160001a905350600a8581610f7057fe5b049450610f0b565b81955050505050505b919050565b600080600080600080610fa4620151808881610f9e57fe5b04611170565b8096508197508298505050506000620151808881610fbe57fe5b069050610e108181610fcc57fe5b049350610e108181610fda57fe5b069050603c8181610fe757fe5b049250603c8181610ff457fe5b0691505091939550919395565b6000600a8260f81c60ff1610156110235760308260f81c0160f81b9050611030565b60578260f81c0160f81b90505b919050565b600080600061104f62015180858161104957fe5b04611170565b8093508194508295505050505050919050565b606080600060099050808411156110835761107c84610e52565b91506110ae565b61108c84610e52565b60405160200161109c9190611c3c565b60405160208183030381529060405291505b8192505050919050565b60008060006110d26201518085816110cc57fe5b04611170565b8093508195508294505050505050919050565b60008060006110ff6201518085816110f957fe5b04611170565b8095508193508294505050505050919050565b60008062015180838161112157fe5b069050610e10818161112f57fe5b04915050919050565b600080610e10838161114657fe5b069050603c818161115357fe5b04915050919050565b6000603c828161116857fe5b069050919050565b600080600080849050600062253d8c62010bd98301019050600062023ab1826004028161119957fe5b059050600460038262023ab10201816111ae57fe5b0582039150600062164b0960018401610fa002816111c857fe5b059050601f6004826105b502816111db57fe5b058403019250600061098f84605002816111f157fe5b059050600060508261098f028161120457fe5b0585039050600b828161121357fe5b05945084600c0260028301039150848360318603606402010192508298508197508096505050505050509193909250565b828054600181600116156101000203166002900490600052602060002090601f016020900481019282601f1061127d57805485556112ba565b828001600101855582156112ba57600052602060002091601f016020900482015b828111156112b957825482559160010191906001019061129e565b5b5090506112c791906113d2565b5090565b50805460018160011615610100020316600290046000825580601f106112f15750611310565b601f01602090049060005260206000209081019061130f91906113d2565b5b50565b6040518060e001604052806000815260200160008152602001600081526020016060815260200160608152602001600015158152602001600081525090565b828054600181600116156101000203166002900490600052602060002090601f016020900481019282601f1061139357805160ff19168380011785556113c1565b828001600101855582156113c1579182015b828111156113c05782518255916020019190600101906113a5565b5b5090506113ce91906113d2565b5090565b6113f491905b808211156113f05760008160009055506001016113d8565b5090565b90565b60008135905061140681611e73565b92915050565b60008135905061141b81611e8a565b92915050565b600082601f83011261143257600080fd5b813561144561144082611d30565b611d03565b9150808252602083016020830185838301111561146157600080fd5b61146c838284611e20565b50505092915050565b60008135905061148481611ea1565b92915050565b60006020828403121561149c57600080fd5b60006114aa848285016113f7565b91505092915050565b6000602082840312156114c557600080fd5b60006114d384828501611475565b91505092915050565b60008060008060008060c087890312156114f557600080fd5b600061150389828a01611475565b965050602061151489828a01611475565b955050604061152589828a01611475565b945050606087013567ffffffffffffffff81111561154257600080fd5b61154e89828a01611421565b935050608087013567ffffffffffffffff81111561156b57600080fd5b61157789828a01611421565b92505060a061158889828a0161140c565b9150509295509295509295565b60006115a183836119d0565b905092915050565b60006115b482611d6c565b6115be8185611d9a565b9350836020820285016115d085611d5c565b8060005b8581101561160c57848403895281516115ed8582611595565b94506115f883611d8d565b925060208a019950506001810190506115d4565b50829750879550505050505092915050565b61162781611dea565b82525050565b600061163882611d82565b6116428185611dbc565b9350611652818560208601611e2f565b61165b81611e62565b840191505092915050565b600061167182611d82565b61167b8185611dcd565b935061168b818560208601611e2f565b80840191505092915050565b60006116a282611d77565b6116ac8185611dab565b93506116bc818560208601611e2f565b6116c581611e62565b840191505092915050565b60006116dd600183611dcd565b91507f30000000000000000000000000000000000000000000000000000000000000006000830152600182019050919050565b600061171d600183611dcd565b91507f0a000000000000000000000000000000000000000000000000000000000000006000830152600182019050919050565b600061175d600883611dcd565b91507f53554d4d4152593a0000000000000000000000000000000000000000000000006000830152600882019050919050565b600061179d600b83611dcd565b91507f454e443a564556454e540a0000000000000000000000000000000000000000006000830152600b82019050919050565b60006117dd600183611dcd565b91507f54000000000000000000000000000000000000000000000000000000000000006000830152600182019050919050565b600061181d600c83611dcd565b91507f4445534352495054494f4e3a00000000000000000000000000000000000000006000830152600c82019050919050565b600061185d600883611dcd565b91507f44545354414d503a0000000000000000000000000000000000000000000000006000830152600882019050919050565b600061189d600d83611dcd565b91507f424547494e3a564556454e540a000000000000000000000000000000000000006000830152600d82019050919050565b60006118dd600183611dcd565b91507f40000000000000000000000000000000000000000000000000000000000000006000830152600182019050919050565b600061191d600483611dcd565b91507f5549443a000000000000000000000000000000000000000000000000000000006000830152600482019050919050565b600061195d600883611dcd565b91507f445453544152543a0000000000000000000000000000000000000000000000006000830152600882019050919050565b600061199d600683611dcd565b91507f4454454e443a00000000000000000000000000000000000000000000000000006000830152600682019050919050565b600060e0830160008301516119e86000860182611a73565b5060208301516119fb6020860182611a73565b506040830151611a0e6040860182611a73565b5060608301518482036060860152611a268282611697565b91505060808301518482036080860152611a408282611697565b91505060a0830151611a5560a086018261161e565b5060c0830151611a6860c0860182611a73565b508091505092915050565b611a7c81611e16565b82525050565b611a8b81611e16565b82525050565b6000611a9d8286611666565b9150611aa98285611666565b9150611ab58284611666565b9150819050949350505050565b6000611ace8289611666565b9150611ada8288611666565b9150611ae68287611666565b9150611af1826117d0565b9150611afd8286611666565b9150611b098285611666565b9150611b158284611666565b9150819050979650505050505050565b6000611b31828b611666565b9150611b3c82611890565b9150611b4782611850565b9150611b53828a611666565b9150611b5e82611710565b9150611b6982611910565b9150611b758289611666565b9150611b80826118d0565b9150611b8c8288611666565b9150611b9782611710565b9150611ba282611950565b9150611bae8287611666565b9150611bb982611710565b9150611bc482611990565b9150611bd08286611666565b9150611bdb82611710565b9150611be682611750565b9150611bf28285611666565b9150611bfd82611710565b9150611c0882611810565b9150611c148284611666565b9150611c1f82611710565b9150611c2a82611790565b91508190509998505050505050505050565b6000611c47826116d0565b9150611c538284611666565b915081905092915050565b60006020820190508181036000830152611c7881846115a9565b905092915050565b60006020820190508181036000830152611c9a818461162d565b905092915050565b600060c082019050611cb76000830189611a82565b611cc46020830188611a82565b611cd16040830187611a82565b611cde6060830186611a82565b611ceb6080830185611a82565b611cf860a0830184611a82565b979650505050505050565b6000604051905081810181811067ffffffffffffffff82111715611d2657600080fd5b8060405250919050565b600067ffffffffffffffff821115611d4757600080fd5b601f19601f8301169050602081019050919050565b6000819050602082019050919050565b600081519050919050565b600081519050919050565b600081519050919050565b6000602082019050919050565b600082825260208201905092915050565b600082825260208201905092915050565b600082825260208201905092915050565b600081905092915050565b6000611de382611df6565b9050919050565b60008115159050919050565b600073ffffffffffffffffffffffffffffffffffffffff82169050919050565b6000819050919050565b82818337600083830152505050565b60005b83811015611e4d578082015181840152602081019050611e32565b83811115611e5c576000848401525b50505050565b6000601f19601f8301169050919050565b611e7c81611dd8565b8114611e8757600080fd5b50565b611e9381611dea565b8114611e9e57600080fd5b50565b611eaa81611e16565b8114611eb557600080fd5b5056fe424547494e3a5643414c454e4441520a56455253494f4e3a322e300a50524f4449443a2d2f2f70726563696f7573636869636b656e2e636f6d2f2f666f726765742d6d652d626c6f636b2d6574682d63616c0a43414c5343414c453a475245474f5249414e0aa2646970667358221220cfe35c7d000f14456ee9b8f91d592e45c16d43c241f9e7862734d265381f5ab964736f6c63430006010033",
  "source": "// SPDX-License-Identifier: MIT\npragma solidity ^0.6.1;\npragma experimental ABIEncoderV2;\n\nimport \"./BokkyPooBahsDateTimeLibrary.sol\";\n\ncontract CalStore  {\n    using BokkyPooBahsDateTimeLibrary for uint;\n\n    struct VEvent {\n        uint dtstamp;\n        uint dtstart;\n        uint dtend;\n        string summary;\n        string description;\n        bool isallday;\n        uint uid; // This should by dtstart, plus an id, plus msg.owner Change to string eventually\n    }\n\n    mapping(address => VEvent[]) private store;\n    mapping(address => uint) private count;\n\n    function storeEvent(uint _dtstamp, uint _dtstart, uint _dtend, string memory _summary, string memory _description, bool _isallday) public {\n        count[msg.sender]++;\n        uint nextId = count[msg.sender];\n        VEvent memory newEvent = VEvent(_dtstamp, _dtstart, _dtend, _summary, _description,  _isallday, nextId);\n        store[msg.sender].push(newEvent);\n    }\n    function justSayHi() public pure returns (string memory) {\n        return \"Hi\";\n    }\n\n    function removeEvent(uint _dtstamp) public {\n        uint storeLen = store[msg.sender].length;\n        for (uint i = 0; i < storeLen; i++) {\n            if (store[msg.sender][i].dtstamp == _dtstamp) {\n                // Move the last element into the place to delete\n                store[msg.sender][i] = store[msg.sender][storeLen - 1];\n                // Remove the last element\n                store[msg.sender].pop();\n                break;\n            }\n        }\n    }\n\n    function timestampToDateTime(uint timestamp) public pure returns (uint year, uint month, uint day, uint hour, uint minute, uint second) {\n        (year, month, day, hour, minute, second) = BokkyPooBahsDateTimeLibrary.timestampToDateTime(timestamp);\n    }\n\n    /// @notice Returns iCal string of message senders previously stored data\n    /// @dev TODO: Return if no events?\n    /// @param _calOwner address of message sender\n    /// @return string iCalendar string iaw RFC 5545\n    function getEventsIcal(address _calOwner) public view returns (string memory) {\n        string memory outputString = \"\";\n        string memory vCalHeader = \"BEGIN:VCALENDAR\\nVERSION:2.0\\nPRODID:-//preciouschicken.com//forget-me-block-eth-cal\\nCALSCALE:GREGORIAN\\n\";\n        string memory vCalFooter = \"END:VCALENDAR\\n\";\n        VEvent[] memory ownerEvent = store[_calOwner];\n        string memory ownerStr = addressToStr(_calOwner);\n\n        for (uint i = 0; i < ownerEvent.length; i++) {\n            string memory dtstamp = unixTimeToStr(ownerEvent[i].dtstamp);\n            string memory uid = uintToStr(ownerEvent[i].uid);\n            string memory dtstart = unixTimeToStr(ownerEvent[i].dtstart);\n            string memory dtend = unixTimeToStr(ownerEvent[i].dtend);\n            string memory summary = ownerEvent[i].summary;\n            string memory description = ownerEvent[i].description;\n            outputString = string(\n                abi.encodePacked(outputString,\"BEGIN:VEVENT\\n\",\n                                 \"DTSTAMP:\", dtstamp, \"\\n\",\n                                 \"UID:\", uid, \"@\", ownerStr, \"\\n\",\n                                 \"DTSTART:\", dtstart, \"\\n\",\n                                 \"DTEND:\", dtend, \"\\n\",\n                                 \"SUMMARY:\", summary, \"\\n\",\n                                 \"DESCRIPTION:\", description, \"\\n\",\n                                 \"END:VEVENT\\n\"\n                                )\n            );\n        }\n        return string(abi.encodePacked(vCalHeader, outputString, vCalFooter));\n    }\n\n\n    function unixTimeToStr(uint _unixTime) private pure returns (string memory) {\n        return string(\n            abi.encodePacked(\n                leadingZeroAdd(BokkyPooBahsDateTimeLibrary.getYear(_unixTime)),\n                leadingZeroAdd(BokkyPooBahsDateTimeLibrary.getMonth(_unixTime)),\n                leadingZeroAdd(BokkyPooBahsDateTimeLibrary.getDay(_unixTime)),\n                \"T\",\n                leadingZeroAdd(BokkyPooBahsDateTimeLibrary.getHour(_unixTime)),\n                leadingZeroAdd(BokkyPooBahsDateTimeLibrary.getMinute(_unixTime)),\n                leadingZeroAdd(BokkyPooBahsDateTimeLibrary.getSecond(_unixTime))\n        )\n        );\n    }\n\n    function leadingZeroAdd(uint _timePoint) private pure returns (string memory) {\n        string memory timeStr;\n        uint requiresZero = 9; // Time points less than 9 require leading zero\n        if (_timePoint > requiresZero ) {\n            timeStr = uintToStr(_timePoint);\n        } else {\n            timeStr = string(abi.encodePacked(\"0\", uintToStr(_timePoint)));\n        }\n        return timeStr;\n    }\n\n    // Returns all msg for msg.sender, regardless of time\n    function getEventsObj(address _calOwner) public view returns (VEvent[] memory) {\n\n        // Return error if no events\n        VEvent[] memory tempData = store[_calOwner];\n        return tempData;\n    }\n\n    /// @notice converts number to string\n    /// @dev source: https://github.com/provable-things/ethereum-api/blob/master/oraclizeAPI_0.5.sol#L1045\n    /// @param _i integer to convert\n    /// @return _uintAsString string\n    function uintToStr(uint _i) internal pure returns (string memory _uintAsString) {\n        uint number = _i;\n        if (number == 0) {\n            return \"0\";\n        }\n        uint j = number;\n        uint len;\n        while (j != 0) {\n            len++;\n            j /= 10;\n        }\n        bytes memory bstr = new bytes(len);\n        uint k = len - 1;\n        while (number != 0) {\n            bstr[k--] = byte(uint8(48 + number % 10));\n            number /= 10;\n        }\n        return string(bstr);\n    }\n\n    /// @notice converts address to string\n    /// @dev source: https://ethereum.stackexchange.com/a/8447/61217\n    /// @param _add address\n    /// @return string\n    function addressToStr(address _add) internal pure returns (string memory) {\n        bytes memory s = new bytes(40);\n        for (uint i = 0; i < 20; i++) {\n            byte b = byte(uint8(uint(_add) / (2**(8*(19 - i)))));\n            byte hi = byte(uint8(b) / 16);\n            byte lo = byte(uint8(b) - 16 * uint8(hi));\n            s[2*i] = char(hi);\n            s[2*i+1] = char(lo);\n        }\n        return string(s);\n    }\n\n    /// @notice character conversion for addressToStr\n    /// @dev source: https://ethereum.stackexchange.com/a/8447/61217\n    /// @param _b byte\n    /// @return c byte\n    function char(byte _b) internal pure returns (byte c) {\n        if (uint8(_b) < 10) {\n            return byte(uint8(_b) + 0x30);\n        } else {\n            return byte(uint8(_b) + 0x57);\n        }\n    }\n\n}\n\n// CalStore.deployed().then(function(instance) {app = instance})\n// let accounts = await web3.eth.getAccounts()\n\n// app.storeEvent(1595170930, 1596121200, 1596123000, \"Meeting 1\", \"First Meeting\");\n// app.storeEvent(1595171030, 1596290400, 1596295800, \"Meeting 2\", \"Second Meeting\");\n// app.getEventsObj(accounts[0]);\n// app.getEventsIcal('0xE65616E1197298060479799B225a02D06005CA14');\n// app.justSayHi();\n\n// get all accounts: web3.eth.getAccounts().then(console.log)\n\n",
  "sourcePath": "/home/gene/Programming/Websites/Precious_Chicken_Website/blog_code_demos/forget-me-block-eth-cal/contracts/CalStore.sol",
  "compiler": {
    "name": "solc",
    "version": "0.6.1+commit.e6f7d5a4.Emscripten.clang"
  },
  "schemaVersion": "3.0.23",
  "updatedAt": "2020-08-09T14:47:04.893Z",
  "networkType": "ethereum",
  "devdoc": {
    "methods": {
      "getEventsIcal(address)": {
        "details": "TODO: Return if no events?",
        "params": {
          "_calOwner": "address of message sender"
        },
        "returns": {
          "_0": "string iCalendar string iaw RFC 5545"
        }
      }
    }
  },
  "userdoc": {
    "methods": {
      "getEventsIcal(address)": {
        "notice": "Returns iCal string of message senders previously stored data"
      }
    }
  }
}