{
  "contractName": "CalStore",
  "abi": [
    {
      "inputs": [
        {
          "internalType": "uint256",
          "name": "_dtstamp",
          "type": "uint256"
        },
        {
          "internalType": "uint256",
          "name": "_dtstart",
          "type": "uint256"
        },
        {
          "internalType": "uint256",
          "name": "_dtend",
          "type": "uint256"
        },
        {
          "internalType": "string",
          "name": "_summary",
          "type": "string"
        },
        {
          "internalType": "string",
          "name": "_description",
          "type": "string"
        }
      ],
      "name": "storeEvent",
      "outputs": [],
      "stateMutability": "nonpayable",
      "type": "function"
    },
    {
      "inputs": [],
      "name": "justSayHi",
      "outputs": [
        {
          "internalType": "string",
          "name": "",
          "type": "string"
        }
      ],
      "stateMutability": "pure",
      "type": "function",
      "constant": true
    },
    {
      "inputs": [
        {
          "internalType": "uint256",
          "name": "timestamp",
          "type": "uint256"
        }
      ],
      "name": "timestampToDateTime",
      "outputs": [
        {
          "internalType": "uint256",
          "name": "year",
          "type": "uint256"
        },
        {
          "internalType": "uint256",
          "name": "month",
          "type": "uint256"
        },
        {
          "internalType": "uint256",
          "name": "day",
          "type": "uint256"
        },
        {
          "internalType": "uint256",
          "name": "hour",
          "type": "uint256"
        },
        {
          "internalType": "uint256",
          "name": "minute",
          "type": "uint256"
        },
        {
          "internalType": "uint256",
          "name": "second",
          "type": "uint256"
        }
      ],
      "stateMutability": "pure",
      "type": "function",
      "constant": true
    },
    {
      "inputs": [
        {
          "internalType": "address",
          "name": "_calOwner",
          "type": "address"
        }
      ],
      "name": "getEventsIcal",
      "outputs": [
        {
          "internalType": "string",
          "name": "",
          "type": "string"
        }
      ],
      "stateMutability": "view",
      "type": "function",
      "constant": true
    },
    {
      "inputs": [
        {
          "internalType": "address",
          "name": "_calOwner",
          "type": "address"
        }
      ],
      "name": "getEventsObj",
      "outputs": [
        {
          "components": [
            {
              "internalType": "uint256",
              "name": "dtstamp",
              "type": "uint256"
            },
            {
              "internalType": "uint256",
              "name": "dtstart",
              "type": "uint256"
            },
            {
              "internalType": "uint256",
              "name": "dtend",
              "type": "uint256"
            },
            {
              "internalType": "string",
              "name": "summary",
              "type": "string"
            },
            {
              "internalType": "string",
              "name": "description",
              "type": "string"
            },
            {
              "internalType": "uint256",
              "name": "uid",
              "type": "uint256"
            }
          ],
          "internalType": "struct CalStore.VEvent[]",
          "name": "",
          "type": "tuple[]"
        }
      ],
      "stateMutability": "view",
      "type": "function",
      "constant": true
    }
  ],
  "bytecode": "0x608060405234801561001057600080fd5b50611e40806100206000396000f3fe608060405234801561001057600080fd5b50600436106100575760003560e01c806310d00a671461005c5780632d2de6781461008c5780636d183b02146100aa5780637fe6d257146100da578063ea1c1690146100f6575b600080fd5b610076600480360361007191908101906113cd565b61012b565b6040516100839190611b8f565b60405180910390f35b6100946104f4565b6040516100a19190611b8f565b60405180910390f35b6100c460048036036100bf91908101906113cd565b610531565b6040516100d19190611b6d565b60405180910390f35b6100f460048036036100ef919081019061141f565b610740565b005b610110600480360361010b91908101906113f6565b610a6f565b60405161012296959493929190611bb1565b60405180910390f35b60608060405180602001604052806000815250905060606040518060a0016040528060668152602001611da560669139905060606040518060400160405280600e81526020017f454e443a5643414c454e4441520a00000000000000000000000000000000000081525090506060600160008773ffffffffffffffffffffffffffffffffffffffff1673ffffffffffffffffffffffffffffffffffffffff168152602001908152602001600020805480602002602001604051908101604052809291908181526020016000905b8282101561039657838290600052602060002090600602016040518060c0016040529081600082015481526020016001820154815260200160028201548152602001600382018054600181600116156101000203166002900480601f0160208091040260200160405190810160405280929190818152602001828054600181600116156101000203166002900480156102d25780601f106102a7576101008083540402835291602001916102d2565b820191906000526020600020905b8154815290600101906020018083116102b557829003601f168201915b50505050508152602001600482018054600181600116156101000203166002900480601f0160208091040260200160405190810160405280929190818152602001828054600181600116156101000203166002900480156103745780601f1061034957610100808354040283529160200191610374565b820191906000526020600020905b81548152906001019060200180831161035757829003601f168201915b50505050508152602001600582015481525050815260200190600101906101f8565b50505050905060606103a787610aa2565b905060008090505b82518110156104c35760606103da8483815181106103c957fe5b602002602001015160000151610bf1565b905060606103fe8584815181106103ed57fe5b602002602001015160a00151610c84565b9050606061042286858151811061041157fe5b602002602001015160200151610bf1565b9050606061044687868151811061043557fe5b602002602001015160400151610bf1565b9050606087868151811061045657fe5b6020026020010151606001519050606088878151811061047257fe5b60200260200101516080015190508b86868a8787878760405160200161049f989796959493929190611a34565b6040516020818303038152906040529b5050505050505080806001019150506103af565b508385846040516020016104d9939291906119a0565b60405160208183030381529060405295505050505050919050565b60606040518060400160405280600281526020017f4869000000000000000000000000000000000000000000000000000000000000815250905090565b606080600160008473ffffffffffffffffffffffffffffffffffffffff1673ffffffffffffffffffffffffffffffffffffffff168152602001908152602001600020805480602002602001604051908101604052809291908181526020016000905b8282101561073157838290600052602060002090600602016040518060c0016040529081600082015481526020016001820154815260200160028201548152602001600382018054600181600116156101000203166002900480601f01602080910402602001604051908101604052809291908181526020018280546001816001161561010002031660029004801561066d5780601f106106425761010080835404028352916020019161066d565b820191906000526020600020905b81548152906001019060200180831161065057829003601f168201915b50505050508152602001600482018054600181600116156101000203166002900480601f01602080910402602001604051908101604052809291908181526020018280546001816001161561010002031660029004801561070f5780601f106106e45761010080835404028352916020019161070f565b820191906000526020600020905b8154815290600101906020018083116106f257829003601f168201915b5050505050815260200160058201548152505081526020019060010190610593565b50505050905080915050919050565b6060600160003373ffffffffffffffffffffffffffffffffffffffff1673ffffffffffffffffffffffffffffffffffffffff168152602001908152602001600020805480602002602001604051908101604052809291908181526020016000905b8282101561093f57838290600052602060002090600602016040518060c0016040529081600082015481526020016001820154815260200160028201548152602001600382018054600181600116156101000203166002900480601f01602080910402602001604051908101604052809291908181526020018280546001816001161561010002031660029004801561087b5780601f106108505761010080835404028352916020019161087b565b820191906000526020600020905b81548152906001019060200180831161085e57829003601f168201915b50505050508152602001600482018054600181600116156101000203166002900480601f01602080910402602001604051908101604052809291908181526020018280546001816001161561010002031660029004801561091d5780601f106108f25761010080835404028352916020019161091d565b820191906000526020600020905b81548152906001019060200180831161090057829003601f168201915b50505050508152602001600582015481525050815260200190600101906107a1565b505050509050600060018251019050610956611076565b6040518060c00160405280898152602001888152602001878152602001868152602001858152602001838152509050600081908060018154018082558091505060019003906000526020600020906006020160009091909190915060008201518160000155602082015181600101556040820151816002015560608201518160030190805190602001906109eb9291906110ac565b506080820151816004019080519060200190610a089291906110ac565b5060a0820151816005015550506000600160003373ffffffffffffffffffffffffffffffffffffffff1673ffffffffffffffffffffffffffffffffffffffff168152602001908152602001600020908054610a6492919061112c565b505050505050505050565b600080600080600080610a8187610db8565b809650819750829850839950849a50859b5050505050505091939550919395565b60608060286040519080825280601f01601f191660200182016040528015610ad95781602001600182028038833980820191505090505b50905060008090505b6014811015610be75760008160130360080260020a8573ffffffffffffffffffffffffffffffffffffffff1681610b1557fe5b0460f81b9050600060108260f81c60ff1681610b2d57fe5b0460f81b905060008160f81c6010028360f81c0360f81b9050610b4f82610e33565b858560020281518110610b5e57fe5b60200101907effffffffffffffffffffffffffffffffffffffffffffffffffffffffffffff1916908160001a905350610b9681610e33565b856001866002020181518110610ba857fe5b60200101907effffffffffffffffffffffffffffffffffffffffffffffffffffffffffffff1916908160001a9053505050508080600101915050610ae2565b5080915050919050565b6060610c04610bff83610e67565b610e94565b610c15610c1084610eea565b610e94565b610c26610c2185610f17565b610e94565b610c37610c3286610f44565b610e94565b610c48610c4387610f6a565b610e94565b610c59610c5488610f8e565b610e94565b604051602001610c6e969594939291906119d1565b6040516020818303038152906040529050919050565b606060008290506000811415610cd2576040518060400160405280600181526020017f3000000000000000000000000000000000000000000000000000000000000000815250915050610db3565b600081905060005b60008214610cfc578080600101915050600a8281610cf457fe5b049150610cda565b6060816040519080825280601f01601f191660200182016040528015610d315781602001600182028038833980820191505090505b50905060006001830390505b60008514610daa57600a8581610d4f57fe5b0660300160f81b82828060019003935081518110610d6957fe5b60200101907effffffffffffffffffffffffffffffffffffffffffffffffffffffffffffff1916908160001a905350600a8581610da257fe5b049450610d3d565b81955050505050505b919050565b600080600080600080610dd6620151808881610dd057fe5b04610fa2565b8096508197508298505050506000620151808881610df057fe5b069050610e108181610dfe57fe5b049350610e108181610e0c57fe5b069050603c8181610e1957fe5b049250603c8181610e2657fe5b0691505091939550919395565b6000600a8260f81c60ff161015610e555760308260f81c0160f81b9050610e62565b60578260f81c0160f81b90505b919050565b6000806000610e81620151808581610e7b57fe5b04610fa2565b8093508194508295505050505050919050565b60608060006009905080841115610eb557610eae84610c84565b9150610ee0565b610ebe84610c84565b604051602001610ece9190611b4b565b60405160208183030381529060405291505b8192505050919050565b6000806000610f04620151808581610efe57fe5b04610fa2565b8093508195508294505050505050919050565b6000806000610f31620151808581610f2b57fe5b04610fa2565b8095508193508294505050505050919050565b600080620151808381610f5357fe5b069050610e108181610f6157fe5b04915050919050565b600080610e108381610f7857fe5b069050603c8181610f8557fe5b04915050919050565b6000603c8281610f9a57fe5b069050919050565b600080600080849050600062253d8c62010bd98301019050600062023ab18260040281610fcb57fe5b059050600460038262023ab1020181610fe057fe5b0582039150600062164b0960018401610fa00281610ffa57fe5b059050601f6004826105b5028161100d57fe5b058403019250600061098f846050028161102357fe5b059050600060508261098f028161103657fe5b0585039050600b828161104557fe5b05945084600c0260028301039150848360318603606402010192508298508197508096505050505050509193909250565b6040518060c001604052806000815260200160008152602001600081526020016060815260200160608152602001600081525090565b828054600181600116156101000203166002900490600052602060002090601f016020900481019282601f106110ed57805160ff191683800117855561111b565b8280016001018555821561111b579182015b8281111561111a5782518255916020019190600101906110ff565b5b50905061112891906111fc565b5090565b8280548282559060005260206000209060060281019282156111eb5760005260206000209160060282015b828111156111ea578282600082015481600001556001820154816001015560028201548160020155600382018160030190805460018160011615610100020316600290046111a6929190611221565b50600482018160040190805460018160011615610100020316600290046111ce929190611221565b5060058201548160050155505091600601919060060190611157565b5b5090506111f891906112a8565b5090565b61121e91905b8082111561121a576000816000905550600101611202565b5090565b90565b828054600181600116156101000203166002900490600052602060002090601f016020900481019282601f1061125a5780548555611297565b8280016001018555821561129757600052602060002091601f016020900482015b8281111561129657825482559160010191906001019061127b565b5b5090506112a491906111fc565b5090565b61130491905b8082111561130057600080820160009055600182016000905560028201600090556003820160006112df9190611307565b6004820160006112ef9190611307565b6005820160009055506006016112ae565b5090565b90565b50805460018160011615610100020316600290046000825580601f1061132d575061134c565b601f01602090049060005260206000209081019061134b91906111fc565b5b50565b60008135905061135e81611d76565b92915050565b600082601f83011261137557600080fd5b813561138861138382611c3f565b611c12565b915080825260208301602083018583830111156113a457600080fd5b6113af838284611d23565b50505092915050565b6000813590506113c781611d8d565b92915050565b6000602082840312156113df57600080fd5b60006113ed8482850161134f565b91505092915050565b60006020828403121561140857600080fd5b6000611416848285016113b8565b91505092915050565b600080600080600060a0868803121561143757600080fd5b6000611445888289016113b8565b9550506020611456888289016113b8565b9450506040611467888289016113b8565b935050606086013567ffffffffffffffff81111561148457600080fd5b61149088828901611364565b925050608086013567ffffffffffffffff8111156114ad57600080fd5b6114b988828901611364565b9150509295509295909350565b60006114d283836118f2565b905092915050565b60006114e582611c7b565b6114ef8185611ca9565b93508360208202850161150185611c6b565b8060005b8581101561153d578484038952815161151e85826114c6565b945061152983611c9c565b925060208a01995050600181019050611505565b50829750879550505050505092915050565b600061155a82611c91565b6115648185611ccb565b9350611574818560208601611d32565b61157d81611d65565b840191505092915050565b600061159382611c91565b61159d8185611cdc565b93506115ad818560208601611d32565b80840191505092915050565b60006115c482611c86565b6115ce8185611cba565b93506115de818560208601611d32565b6115e781611d65565b840191505092915050565b60006115ff600183611cdc565b91507f30000000000000000000000000000000000000000000000000000000000000006000830152600182019050919050565b600061163f600183611cdc565b91507f0a000000000000000000000000000000000000000000000000000000000000006000830152600182019050919050565b600061167f600883611cdc565b91507f53554d4d4152593a0000000000000000000000000000000000000000000000006000830152600882019050919050565b60006116bf600b83611cdc565b91507f454e443a564556454e540a0000000000000000000000000000000000000000006000830152600b82019050919050565b60006116ff600183611cdc565b91507f54000000000000000000000000000000000000000000000000000000000000006000830152600182019050919050565b600061173f600c83611cdc565b91507f4445534352495054494f4e3a00000000000000000000000000000000000000006000830152600c82019050919050565b600061177f600883611cdc565b91507f44545354414d503a0000000000000000000000000000000000000000000000006000830152600882019050919050565b60006117bf600d83611cdc565b91507f424547494e3a564556454e540a000000000000000000000000000000000000006000830152600d82019050919050565b60006117ff600183611cdc565b91507f40000000000000000000000000000000000000000000000000000000000000006000830152600182019050919050565b600061183f600483611cdc565b91507f5549443a000000000000000000000000000000000000000000000000000000006000830152600482019050919050565b600061187f600883611cdc565b91507f445453544152543a0000000000000000000000000000000000000000000000006000830152600882019050919050565b60006118bf600683611cdc565b91507f4454454e443a00000000000000000000000000000000000000000000000000006000830152600682019050919050565b600060c08301600083015161190a6000860182611982565b50602083015161191d6020860182611982565b5060408301516119306040860182611982565b506060830151848203606086015261194882826115b9565b9150506080830151848203608086015261196282826115b9565b91505060a083015161197760a0860182611982565b508091505092915050565b61198b81611d19565b82525050565b61199a81611d19565b82525050565b60006119ac8286611588565b91506119b88285611588565b91506119c48284611588565b9150819050949350505050565b60006119dd8289611588565b91506119e98288611588565b91506119f58287611588565b9150611a00826116f2565b9150611a0c8286611588565b9150611a188285611588565b9150611a248284611588565b9150819050979650505050505050565b6000611a40828b611588565b9150611a4b826117b2565b9150611a5682611772565b9150611a62828a611588565b9150611a6d82611632565b9150611a7882611832565b9150611a848289611588565b9150611a8f826117f2565b9150611a9b8288611588565b9150611aa682611632565b9150611ab182611872565b9150611abd8287611588565b9150611ac882611632565b9150611ad3826118b2565b9150611adf8286611588565b9150611aea82611632565b9150611af582611672565b9150611b018285611588565b9150611b0c82611632565b9150611b1782611732565b9150611b238284611588565b9150611b2e82611632565b9150611b39826116b2565b91508190509998505050505050505050565b6000611b56826115f2565b9150611b628284611588565b915081905092915050565b60006020820190508181036000830152611b8781846114da565b905092915050565b60006020820190508181036000830152611ba9818461154f565b905092915050565b600060c082019050611bc66000830189611991565b611bd36020830188611991565b611be06040830187611991565b611bed6060830186611991565b611bfa6080830185611991565b611c0760a0830184611991565b979650505050505050565b6000604051905081810181811067ffffffffffffffff82111715611c3557600080fd5b8060405250919050565b600067ffffffffffffffff821115611c5657600080fd5b601f19601f8301169050602081019050919050565b6000819050602082019050919050565b600081519050919050565b600081519050919050565b600081519050919050565b6000602082019050919050565b600082825260208201905092915050565b600082825260208201905092915050565b600082825260208201905092915050565b600081905092915050565b6000611cf282611cf9565b9050919050565b600073ffffffffffffffffffffffffffffffffffffffff82169050919050565b6000819050919050565b82818337600083830152505050565b60005b83811015611d50578082015181840152602081019050611d35565b83811115611d5f576000848401525b50505050565b6000601f19601f8301169050919050565b611d7f81611ce7565b8114611d8a57600080fd5b50565b611d9681611d19565b8114611da157600080fd5b5056fe424547494e3a5643414c454e4441520a56455253494f4e3a322e300a50524f4449443a2d2f2f70726563696f7573636869636b656e2e636f6d2f2f666f726765742d6d652d626c6f636b2d6574682d63616c0a43414c5343414c453a475245474f5249414e0aa26469706673582212208a3621e7e770ae4de276fd1894a1a992331fabaf369c9651017e8548a1f15e8964736f6c63430006010033",
  "source": "// SPDX-License-Identifier: MIT\npragma solidity ^0.6.1;\npragma experimental ABIEncoderV2;\n\nimport \"./BokkyPooBahsDateTimeLibrary.sol\";\n\ncontract CalStore  {\n    using BokkyPooBahsDateTimeLibrary for uint;\n\n    struct VEvent {\n        uint dtstamp;\n        uint dtstart;\n        uint dtend;\n        string summary;\n        string description;\n        uint uid; // This should by dtstart, plus an id, plus msg.owner Change to string eventually\n    }\n\n    VEvent[] private userVEvent;\n    mapping(address => VEvent[]) private store;\n\n    function storeEvent(uint _dtstamp, uint _dtstart, uint _dtend, string memory _summary, string memory _description) public {\n        VEvent[] memory currentData = store[msg.sender];\n        uint nextId = currentData.length + 1;\n        VEvent memory newData = VEvent(_dtstamp, _dtstart, _dtend, _summary, _description, nextId);\n        userVEvent.push(newData);\n        store[msg.sender] = userVEvent;\n    }\n    function justSayHi() public pure returns (string memory) {\n        return \"Hi\";\n    }\n\n    function timestampToDateTime(uint timestamp) public pure returns (uint year, uint month, uint day, uint hour, uint minute, uint second) {\n        (year, month, day, hour, minute, second) = BokkyPooBahsDateTimeLibrary.timestampToDateTime(timestamp);\n    }\n\n    /// @notice Returns iCal string of message senders previously stored data\n    /// @dev TODO: Return if no events?\n    /// @param _calOwner address of message sender\n    /// @return string iCalendar string iaw RFC 5545\n    function getEventsIcal(address _calOwner) public view returns (string memory) {\n        string memory outputString = \"\";\n        string memory vCalHeader = \"BEGIN:VCALENDAR\\nVERSION:2.0\\nPRODID:-//preciouschicken.com//forget-me-block-eth-cal\\nCALSCALE:GREGORIAN\\n\";\n        string memory vCalFooter = \"END:VCALENDAR\\n\";\n        VEvent[] memory ownerEvent = store[_calOwner];\n        string memory ownerStr = addressToStr(_calOwner);\n\n        for (uint i = 0; i < ownerEvent.length; i++) {\n            // string memory dtstamp = ownerEvent[i].dtstamp;\n            // string memory uid = ownerEvent[i].uid;\n            // string memory dtstart = ownerEvent[i].dtstart;\n            // string memory dtend = ownerEvent[i].dtend;\n            string memory dtstamp = unixTimeToStr(ownerEvent[i].dtstamp);\n            string memory uid = uintToStr(ownerEvent[i].uid);\n            string memory dtstart = unixTimeToStr(ownerEvent[i].dtstart);\n            string memory dtend = unixTimeToStr(ownerEvent[i].dtend);\n            string memory summary = ownerEvent[i].summary;\n            string memory description = ownerEvent[i].description;\n            outputString = string(\n                abi.encodePacked(outputString,\"BEGIN:VEVENT\\n\",\n                                 \"DTSTAMP:\", dtstamp, \"\\n\",\n                                 \"UID:\", uid, \"@\", ownerStr, \"\\n\",\n                                 \"DTSTART:\", dtstart, \"\\n\",\n                                 \"DTEND:\", dtend, \"\\n\",\n                                 \"SUMMARY:\", summary, \"\\n\",\n                                 \"DESCRIPTION:\", description, \"\\n\",\n                                 \"END:VEVENT\\n\"\n                                )\n            );\n        }\n        return string(abi.encodePacked(vCalHeader, outputString, vCalFooter));\n    }\n\n\n    function unixTimeToStr(uint _unixTime) private pure returns (string memory) {\n        return string(\n            abi.encodePacked(\n            leadingZeroAdd(BokkyPooBahsDateTimeLibrary.getYear(_unixTime)),\n            leadingZeroAdd(BokkyPooBahsDateTimeLibrary.getMonth(_unixTime)),\n            leadingZeroAdd(BokkyPooBahsDateTimeLibrary.getDay(_unixTime)),\n            \"T\",\n            leadingZeroAdd(BokkyPooBahsDateTimeLibrary.getHour(_unixTime)),\n            leadingZeroAdd(BokkyPooBahsDateTimeLibrary.getMinute(_unixTime)),\n            leadingZeroAdd(BokkyPooBahsDateTimeLibrary.getSecond(_unixTime))\n        )\n        );\n    }\n\n    function leadingZeroAdd(uint _timePoint) private pure returns (string memory) {\n        string memory timeStr;\n        uint requiresZero = 9; // Time points less than 9 require leading zero\n        if (_timePoint > requiresZero ) {\n            timeStr = uintToStr(_timePoint);\n        } else {\n            timeStr = string(abi.encodePacked(\"0\", uintToStr(_timePoint)));\n        }\n        return timeStr;\n    }\n\n    // Returns all msg for msg.sender, regardless of time\n    function getEventsObj(address _calOwner) public view returns (VEvent[] memory) {\n\n        // Return error if no events\n        VEvent[] memory tempData = store[_calOwner];\n        return tempData;\n    }\n\n    /// @notice converts number to string\n    /// @dev source: https://github.com/provable-things/ethereum-api/blob/master/oraclizeAPI_0.5.sol#L1045\n    /// @param _i integer to convert\n    /// @return _uintAsString string\n    function uintToStr(uint _i) internal pure returns (string memory _uintAsString) {\n        uint number = _i;\n        if (number == 0) {\n            return \"0\";\n        }\n        uint j = number;\n        uint len;\n        while (j != 0) {\n            len++;\n            j /= 10;\n        }\n        bytes memory bstr = new bytes(len);\n        uint k = len - 1;\n        while (number != 0) {\n            bstr[k--] = byte(uint8(48 + number % 10));\n            number /= 10;\n        }\n        return string(bstr);\n    }\n\n    /// @notice converts address to string\n    /// @dev source: https://ethereum.stackexchange.com/a/8447/61217\n    /// @param _add address\n    /// @return string\n    function addressToStr(address _add) internal pure returns (string memory) {\n        bytes memory s = new bytes(40);\n        for (uint i = 0; i < 20; i++) {\n            byte b = byte(uint8(uint(_add) / (2**(8*(19 - i)))));\n            byte hi = byte(uint8(b) / 16);\n            byte lo = byte(uint8(b) - 16 * uint8(hi));\n            s[2*i] = char(hi);\n            s[2*i+1] = char(lo);\n        }\n        return string(s);\n    }\n\n    /// @notice character conversion for addressToStr\n    /// @dev source: https://ethereum.stackexchange.com/a/8447/61217\n    /// @param _b byte\n    /// @return c byte\n    function char(byte _b) internal pure returns (byte c) {\n        if (uint8(_b) < 10) {\n            return byte(uint8(_b) + 0x30);\n        } else {\n            return byte(uint8(_b) + 0x57);\n        }\n    }\n\n}\n\n// CalStore.deployed().then(function(instance) {app = instance})\n// app.storeEvent(1595170930, 1596121200, 1596123000, \"Meeting 1\", \"First Meeting\");\n// app.storeEvent(1595171030, 1596290400, 1596295800, \"Meeting 2\", \"Second Meeting\");\n// app.getEventsObj('0x56F1Db4937328D1102273D1192f3094C9Ffb1310');\n// app.getEventsIcal('0x56F1Db4937328D1102273D1192f3094C9Ffb1310');\n// app.justSayHi();\n\n// get all accounts: web3.eth.getAccounts().then(console.log)\n\n",
  "sourcePath": "/home/gene/Programming/Websites/Precious_Chicken_Website/blog_code_demos/forget-me-block-eth-cal/contracts/CalStore.sol",
  "compiler": {
    "name": "solc",
    "version": "0.6.1+commit.e6f7d5a4.Emscripten.clang"
  },
  "schemaVersion": "3.0.23",
  "updatedAt": "2020-08-03T14:15:56.607Z",
  "networkType": "ethereum",
  "devdoc": {
    "methods": {
      "getEventsIcal(address)": {
        "details": "TODO: Return if no events?",
        "params": {
          "_calOwner": "address of message sender"
        },
        "returns": {
          "_0": "string iCalendar string iaw RFC 5545"
        }
      }
    }
  },
  "userdoc": {
    "methods": {
      "getEventsIcal(address)": {
        "notice": "Returns iCal string of message senders previously stored data"
      }
    }
  }
}