{
  "contractName": "CalStore",
  "abi": [
    {
      "inputs": [
        {
          "internalType": "uint256",
          "name": "_dtstamp",
          "type": "uint256"
        },
        {
          "internalType": "uint256",
          "name": "_dtstart",
          "type": "uint256"
        },
        {
          "internalType": "uint256",
          "name": "_dtend",
          "type": "uint256"
        },
        {
          "internalType": "string",
          "name": "_summary",
          "type": "string"
        },
        {
          "internalType": "string",
          "name": "_description",
          "type": "string"
        }
      ],
      "name": "storeEvent",
      "outputs": [],
      "stateMutability": "nonpayable",
      "type": "function"
    },
    {
      "inputs": [],
      "name": "justSayHi",
      "outputs": [
        {
          "internalType": "string",
          "name": "",
          "type": "string"
        }
      ],
      "stateMutability": "pure",
      "type": "function",
      "constant": true
    },
    {
      "inputs": [
        {
          "internalType": "uint256",
          "name": "_index",
          "type": "uint256"
        }
      ],
      "name": "removeEvent",
      "outputs": [],
      "stateMutability": "nonpayable",
      "type": "function"
    },
    {
      "inputs": [
        {
          "internalType": "uint256",
          "name": "timestamp",
          "type": "uint256"
        }
      ],
      "name": "timestampToDateTime",
      "outputs": [
        {
          "internalType": "uint256",
          "name": "year",
          "type": "uint256"
        },
        {
          "internalType": "uint256",
          "name": "month",
          "type": "uint256"
        },
        {
          "internalType": "uint256",
          "name": "day",
          "type": "uint256"
        },
        {
          "internalType": "uint256",
          "name": "hour",
          "type": "uint256"
        },
        {
          "internalType": "uint256",
          "name": "minute",
          "type": "uint256"
        },
        {
          "internalType": "uint256",
          "name": "second",
          "type": "uint256"
        }
      ],
      "stateMutability": "pure",
      "type": "function",
      "constant": true
    },
    {
      "inputs": [
        {
          "internalType": "address",
          "name": "_calOwner",
          "type": "address"
        }
      ],
      "name": "getEventsIcal",
      "outputs": [
        {
          "internalType": "string",
          "name": "",
          "type": "string"
        }
      ],
      "stateMutability": "view",
      "type": "function",
      "constant": true
    },
    {
      "inputs": [
        {
          "internalType": "address",
          "name": "_calOwner",
          "type": "address"
        }
      ],
      "name": "getEventsObj",
      "outputs": [
        {
          "components": [
            {
              "internalType": "uint256",
              "name": "dtstamp",
              "type": "uint256"
            },
            {
              "internalType": "uint256",
              "name": "dtstart",
              "type": "uint256"
            },
            {
              "internalType": "uint256",
              "name": "dtend",
              "type": "uint256"
            },
            {
              "internalType": "string",
              "name": "summary",
              "type": "string"
            },
            {
              "internalType": "string",
              "name": "description",
              "type": "string"
            },
            {
              "internalType": "uint256",
              "name": "uid",
              "type": "uint256"
            }
          ],
          "internalType": "struct CalStore.VEvent[]",
          "name": "",
          "type": "tuple[]"
        }
      ],
      "stateMutability": "view",
      "type": "function",
      "constant": true
    }
  ],
  "bytecode": "0x608060405234801561001057600080fd5b50611ce9806100206000396000f3fe608060405234801561001057600080fd5b50600436106100625760003560e01c806310d00a67146100675780632d2de6781461009757806356164e1e146100b55780636d183b02146100d15780637fe6d25714610101578063ea1c16901461011d575b600080fd5b610081600480360361007c9190810190611276565b610152565b60405161008e9190611a38565b60405180910390f35b61009f61051a565b6040516100ac9190611a38565b60405180910390f35b6100cf60048036036100ca919081019061129f565b610557565b005b6100eb60048036036100e69190810190611276565b61077d565b6040516100f89190611a16565b60405180910390f35b61011b600480360361011691908101906112c8565b61098b565b005b6101376004803603610132919081019061129f565b610ae0565b60405161014996959493929190611a5a565b60405180910390f35b60608060405180602001604052806000815250905060606040518060a0016040528060668152602001611c4e60669139905060606040518060400160405280600e81526020017f454e443a5643414c454e4441520a000000000000000000000000000000000000815250905060606000808773ffffffffffffffffffffffffffffffffffffffff1673ffffffffffffffffffffffffffffffffffffffff168152602001908152602001600020805480602002602001604051908101604052809291908181526020016000905b828210156103bc57838290600052602060002090600602016040518060c0016040529081600082015481526020016001820154815260200160028201548152602001600382018054600181600116156101000203166002900480601f0160208091040260200160405190810160405280929190818152602001828054600181600116156101000203166002900480156102f85780601f106102cd576101008083540402835291602001916102f8565b820191906000526020600020905b8154815290600101906020018083116102db57829003601f168201915b50505050508152602001600482018054600181600116156101000203166002900480601f01602080910402602001604051908101604052809291908181526020018280546001816001161561010002031660029004801561039a5780601f1061036f5761010080835404028352916020019161039a565b820191906000526020600020905b81548152906001019060200180831161037d57829003601f168201915b505050505081526020016005820154815250508152602001906001019061021e565b50505050905060606103cd87610b13565b905060008090505b82518110156104e95760606104008483815181106103ef57fe5b602002602001015160000151610c62565b9050606061042485848151811061041357fe5b602002602001015160a00151610cf5565b9050606061044886858151811061043757fe5b602002602001015160200151610c62565b9050606061046c87868151811061045b57fe5b602002602001015160400151610c62565b9050606087868151811061047c57fe5b6020026020010151606001519050606088878151811061049857fe5b60200260200101516080015190508b86868a878787876040516020016104c59897969594939291906118dd565b6040516020818303038152906040529b5050505050505080806001019150506103d5565b508385846040516020016104ff93929190611849565b60405160208183030381529060405295505050505050919050565b60606040518060400160405280600281526020017f4869000000000000000000000000000000000000000000000000000000000000815250905090565b60606000803373ffffffffffffffffffffffffffffffffffffffff1673ffffffffffffffffffffffffffffffffffffffff168152602001908152602001600020805480602002602001604051908101604052809291908181526020016000905b8282101561075557838290600052602060002090600602016040518060c0016040529081600082015481526020016001820154815260200160028201548152602001600382018054600181600116156101000203166002900480601f0160208091040260200160405190810160405280929190818152602001828054600181600116156101000203166002900480156106915780601f1061066657610100808354040283529160200191610691565b820191906000526020600020905b81548152906001019060200180831161067457829003601f168201915b50505050508152602001600482018054600181600116156101000203166002900480601f0160208091040260200160405190810160405280929190818152602001828054600181600116156101000203166002900480156107335780601f1061070857610100808354040283529160200191610733565b820191906000526020600020905b81548152906001019060200180831161071657829003601f168201915b50505050508152602001600582015481525050815260200190600101906105b7565b50505050905080828151811061076757fe5b602002602001016107766110e7565b8152505050565b6060806000808473ffffffffffffffffffffffffffffffffffffffff1673ffffffffffffffffffffffffffffffffffffffff168152602001908152602001600020805480602002602001604051908101604052809291908181526020016000905b8282101561097c57838290600052602060002090600602016040518060c0016040529081600082015481526020016001820154815260200160028201548152602001600382018054600181600116156101000203166002900480601f0160208091040260200160405190810160405280929190818152602001828054600181600116156101000203166002900480156108b85780601f1061088d576101008083540402835291602001916108b8565b820191906000526020600020905b81548152906001019060200180831161089b57829003601f168201915b50505050508152602001600482018054600181600116156101000203166002900480601f01602080910402602001604051908101604052809291908181526020018280546001816001161561010002031660029004801561095a5780601f1061092f5761010080835404028352916020019161095a565b820191906000526020600020905b81548152906001019060200180831161093d57829003601f168201915b50505050508152602001600582015481525050815260200190600101906107de565b50505050905080915050919050565b600060016000803373ffffffffffffffffffffffffffffffffffffffff1673ffffffffffffffffffffffffffffffffffffffff168152602001908152602001600020805490500190506109dc61111d565b6040518060c001604052808881526020018781526020018681526020018581526020018481526020018381525090506000803373ffffffffffffffffffffffffffffffffffffffff1673ffffffffffffffffffffffffffffffffffffffff1681526020019081526020016000208190806001815401808255809150506001900390600052602060002090600602016000909190919091506000820151816000015560208201518160010155604082015181600201556060820151816003019080519060200190610aad929190611153565b506080820151816004019080519060200190610aca929190611153565b5060a08201518160050155505050505050505050565b600080600080600080610af287610e29565b809650819750829850839950849a50859b5050505050505091939550919395565b60608060286040519080825280601f01601f191660200182016040528015610b4a5781602001600182028038833980820191505090505b50905060008090505b6014811015610c585760008160130360080260020a8573ffffffffffffffffffffffffffffffffffffffff1681610b8657fe5b0460f81b9050600060108260f81c60ff1681610b9e57fe5b0460f81b905060008160f81c6010028360f81c0360f81b9050610bc082610ea4565b858560020281518110610bcf57fe5b60200101907effffffffffffffffffffffffffffffffffffffffffffffffffffffffffffff1916908160001a905350610c0781610ea4565b856001866002020181518110610c1957fe5b60200101907effffffffffffffffffffffffffffffffffffffffffffffffffffffffffffff1916908160001a9053505050508080600101915050610b53565b5080915050919050565b6060610c75610c7083610ed8565b610f05565b610c86610c8184610f5b565b610f05565b610c97610c9285610f88565b610f05565b610ca8610ca386610fb5565b610f05565b610cb9610cb487610fdb565b610f05565b610cca610cc588610fff565b610f05565b604051602001610cdf9695949392919061187a565b6040516020818303038152906040529050919050565b606060008290506000811415610d43576040518060400160405280600181526020017f3000000000000000000000000000000000000000000000000000000000000000815250915050610e24565b600081905060005b60008214610d6d578080600101915050600a8281610d6557fe5b049150610d4b565b6060816040519080825280601f01601f191660200182016040528015610da25781602001600182028038833980820191505090505b50905060006001830390505b60008514610e1b57600a8581610dc057fe5b0660300160f81b82828060019003935081518110610dda57fe5b60200101907effffffffffffffffffffffffffffffffffffffffffffffffffffffffffffff1916908160001a905350600a8581610e1357fe5b049450610dae565b81955050505050505b919050565b600080600080600080610e47620151808881610e4157fe5b04611013565b8096508197508298505050506000620151808881610e6157fe5b069050610e108181610e6f57fe5b049350610e108181610e7d57fe5b069050603c8181610e8a57fe5b049250603c8181610e9757fe5b0691505091939550919395565b6000600a8260f81c60ff161015610ec65760308260f81c0160f81b9050610ed3565b60578260f81c0160f81b90505b919050565b6000806000610ef2620151808581610eec57fe5b04611013565b8093508194508295505050505050919050565b60608060006009905080841115610f2657610f1f84610cf5565b9150610f51565b610f2f84610cf5565b604051602001610f3f91906119f4565b60405160208183030381529060405291505b8192505050919050565b6000806000610f75620151808581610f6f57fe5b04611013565b8093508195508294505050505050919050565b6000806000610fa2620151808581610f9c57fe5b04611013565b8095508193508294505050505050919050565b600080620151808381610fc457fe5b069050610e108181610fd257fe5b04915050919050565b600080610e108381610fe957fe5b069050603c8181610ff657fe5b04915050919050565b6000603c828161100b57fe5b069050919050565b600080600080849050600062253d8c62010bd98301019050600062023ab1826004028161103c57fe5b059050600460038262023ab102018161105157fe5b0582039150600062164b0960018401610fa0028161106b57fe5b059050601f6004826105b5028161107e57fe5b058403019250600061098f846050028161109457fe5b059050600060508261098f02816110a757fe5b0585039050600b82816110b657fe5b05945084600c0260028301039150848360318603606402010192508298508197508096505050505050509193909250565b6040518060c001604052806000815260200160008152602001600081526020016060815260200160608152602001600081525090565b6040518060c001604052806000815260200160008152602001600081526020016060815260200160608152602001600081525090565b828054600181600116156101000203166002900490600052602060002090601f016020900481019282601f1061119457805160ff19168380011785556111c2565b828001600101855582156111c2579182015b828111156111c15782518255916020019190600101906111a6565b5b5090506111cf91906111d3565b5090565b6111f591905b808211156111f15760008160009055506001016111d9565b5090565b90565b60008135905061120781611c1f565b92915050565b600082601f83011261121e57600080fd5b813561123161122c82611ae8565b611abb565b9150808252602083016020830185838301111561124d57600080fd5b611258838284611bcc565b50505092915050565b60008135905061127081611c36565b92915050565b60006020828403121561128857600080fd5b6000611296848285016111f8565b91505092915050565b6000602082840312156112b157600080fd5b60006112bf84828501611261565b91505092915050565b600080600080600060a086880312156112e057600080fd5b60006112ee88828901611261565b95505060206112ff88828901611261565b945050604061131088828901611261565b935050606086013567ffffffffffffffff81111561132d57600080fd5b6113398882890161120d565b925050608086013567ffffffffffffffff81111561135657600080fd5b6113628882890161120d565b9150509295509295909350565b600061137b838361179b565b905092915050565b600061138e82611b24565b6113988185611b52565b9350836020820285016113aa85611b14565b8060005b858110156113e657848403895281516113c7858261136f565b94506113d283611b45565b925060208a019950506001810190506113ae565b50829750879550505050505092915050565b600061140382611b3a565b61140d8185611b74565b935061141d818560208601611bdb565b61142681611c0e565b840191505092915050565b600061143c82611b3a565b6114468185611b85565b9350611456818560208601611bdb565b80840191505092915050565b600061146d82611b2f565b6114778185611b63565b9350611487818560208601611bdb565b61149081611c0e565b840191505092915050565b60006114a8600183611b85565b91507f30000000000000000000000000000000000000000000000000000000000000006000830152600182019050919050565b60006114e8600183611b85565b91507f0a000000000000000000000000000000000000000000000000000000000000006000830152600182019050919050565b6000611528600883611b85565b91507f53554d4d4152593a0000000000000000000000000000000000000000000000006000830152600882019050919050565b6000611568600b83611b85565b91507f454e443a564556454e540a0000000000000000000000000000000000000000006000830152600b82019050919050565b60006115a8600183611b85565b91507f54000000000000000000000000000000000000000000000000000000000000006000830152600182019050919050565b60006115e8600c83611b85565b91507f4445534352495054494f4e3a00000000000000000000000000000000000000006000830152600c82019050919050565b6000611628600883611b85565b91507f44545354414d503a0000000000000000000000000000000000000000000000006000830152600882019050919050565b6000611668600d83611b85565b91507f424547494e3a564556454e540a000000000000000000000000000000000000006000830152600d82019050919050565b60006116a8600183611b85565b91507f40000000000000000000000000000000000000000000000000000000000000006000830152600182019050919050565b60006116e8600483611b85565b91507f5549443a000000000000000000000000000000000000000000000000000000006000830152600482019050919050565b6000611728600883611b85565b91507f445453544152543a0000000000000000000000000000000000000000000000006000830152600882019050919050565b6000611768600683611b85565b91507f4454454e443a00000000000000000000000000000000000000000000000000006000830152600682019050919050565b600060c0830160008301516117b3600086018261182b565b5060208301516117c6602086018261182b565b5060408301516117d9604086018261182b565b50606083015184820360608601526117f18282611462565b9150506080830151848203608086015261180b8282611462565b91505060a083015161182060a086018261182b565b508091505092915050565b61183481611bc2565b82525050565b61184381611bc2565b82525050565b60006118558286611431565b91506118618285611431565b915061186d8284611431565b9150819050949350505050565b60006118868289611431565b91506118928288611431565b915061189e8287611431565b91506118a98261159b565b91506118b58286611431565b91506118c18285611431565b91506118cd8284611431565b9150819050979650505050505050565b60006118e9828b611431565b91506118f48261165b565b91506118ff8261161b565b915061190b828a611431565b9150611916826114db565b9150611921826116db565b915061192d8289611431565b91506119388261169b565b91506119448288611431565b915061194f826114db565b915061195a8261171b565b91506119668287611431565b9150611971826114db565b915061197c8261175b565b91506119888286611431565b9150611993826114db565b915061199e8261151b565b91506119aa8285611431565b91506119b5826114db565b91506119c0826115db565b91506119cc8284611431565b91506119d7826114db565b91506119e28261155b565b91508190509998505050505050505050565b60006119ff8261149b565b9150611a0b8284611431565b915081905092915050565b60006020820190508181036000830152611a308184611383565b905092915050565b60006020820190508181036000830152611a5281846113f8565b905092915050565b600060c082019050611a6f600083018961183a565b611a7c602083018861183a565b611a89604083018761183a565b611a96606083018661183a565b611aa3608083018561183a565b611ab060a083018461183a565b979650505050505050565b6000604051905081810181811067ffffffffffffffff82111715611ade57600080fd5b8060405250919050565b600067ffffffffffffffff821115611aff57600080fd5b601f19601f8301169050602081019050919050565b6000819050602082019050919050565b600081519050919050565b600081519050919050565b600081519050919050565b6000602082019050919050565b600082825260208201905092915050565b600082825260208201905092915050565b600082825260208201905092915050565b600081905092915050565b6000611b9b82611ba2565b9050919050565b600073ffffffffffffffffffffffffffffffffffffffff82169050919050565b6000819050919050565b82818337600083830152505050565b60005b83811015611bf9578082015181840152602081019050611bde565b83811115611c08576000848401525b50505050565b6000601f19601f8301169050919050565b611c2881611b90565b8114611c3357600080fd5b50565b611c3f81611bc2565b8114611c4a57600080fd5b5056fe424547494e3a5643414c454e4441520a56455253494f4e3a322e300a50524f4449443a2d2f2f70726563696f7573636869636b656e2e636f6d2f2f666f726765742d6d652d626c6f636b2d6574682d63616c0a43414c5343414c453a475245474f5249414e0aa2646970667358221220cb1f937d3d1ebbc766aa3e132660fac8901438f1d10483f1ed34aa2a238119f964736f6c63430006010033",
  "source": "// SPDX-License-Identifier: MIT\npragma solidity ^0.6.1;\npragma experimental ABIEncoderV2;\n\nimport \"./BokkyPooBahsDateTimeLibrary.sol\";\n\ncontract CalStore  {\n    using BokkyPooBahsDateTimeLibrary for uint;\n\n    struct VEvent {\n        uint dtstamp;\n        uint dtstart;\n        uint dtend;\n        string summary;\n        string description;\n        uint uid; // This should by dtstart, plus an id, plus msg.owner Change to string eventually\n    }\n\n    // VEvent[] private userVEvent;\n    mapping(address => VEvent[]) private store;\n\n    function storeEvent(uint _dtstamp, uint _dtstart, uint _dtend, string memory _summary, string memory _description) public {\n        // VEvent[] memory currentData = store[msg.sender];\n        // uint nextId = currentData.length + 1;\n        // VEvent[] memory currentData = store[msg.sender];\n        uint nextId = store[msg.sender].length + 1;\n        VEvent memory newEvent = VEvent(_dtstamp, _dtstart, _dtend, _summary, _description, nextId);\n        store[msg.sender].push(newEvent);\n    }\n    function justSayHi() public pure returns (string memory) {\n        return \"Hi\";\n    }\n\n    function removeEvent(uint _index) public {\n        // Delete does not change the array length.\n        // It resets the value at index to it's default value,\n        // in this case 0\n        VEvent[] memory currentData = store[msg.sender];\n        delete currentData[_index];\n    }\n\n    function timestampToDateTime(uint timestamp) public pure returns (uint year, uint month, uint day, uint hour, uint minute, uint second) {\n        (year, month, day, hour, minute, second) = BokkyPooBahsDateTimeLibrary.timestampToDateTime(timestamp);\n    }\n\n    /// @notice Returns iCal string of message senders previously stored data\n    /// @dev TODO: Return if no events?\n    /// @param _calOwner address of message sender\n    /// @return string iCalendar string iaw RFC 5545\n    function getEventsIcal(address _calOwner) public view returns (string memory) {\n        string memory outputString = \"\";\n        string memory vCalHeader = \"BEGIN:VCALENDAR\\nVERSION:2.0\\nPRODID:-//preciouschicken.com//forget-me-block-eth-cal\\nCALSCALE:GREGORIAN\\n\";\n        string memory vCalFooter = \"END:VCALENDAR\\n\";\n        VEvent[] memory ownerEvent = store[_calOwner];\n        string memory ownerStr = addressToStr(_calOwner);\n\n        for (uint i = 0; i < ownerEvent.length; i++) {\n            // string memory dtstamp = ownerEvent[i].dtstamp;\n            // string memory uid = ownerEvent[i].uid;\n            // string memory dtstart = ownerEvent[i].dtstart;\n            // string memory dtend = ownerEvent[i].dtend;\n            string memory dtstamp = unixTimeToStr(ownerEvent[i].dtstamp);\n            string memory uid = uintToStr(ownerEvent[i].uid);\n            string memory dtstart = unixTimeToStr(ownerEvent[i].dtstart);\n            string memory dtend = unixTimeToStr(ownerEvent[i].dtend);\n            string memory summary = ownerEvent[i].summary;\n            string memory description = ownerEvent[i].description;\n            outputString = string(\n                abi.encodePacked(outputString,\"BEGIN:VEVENT\\n\",\n                                 \"DTSTAMP:\", dtstamp, \"\\n\",\n                                 \"UID:\", uid, \"@\", ownerStr, \"\\n\",\n                                 \"DTSTART:\", dtstart, \"\\n\",\n                                 \"DTEND:\", dtend, \"\\n\",\n                                 \"SUMMARY:\", summary, \"\\n\",\n                                 \"DESCRIPTION:\", description, \"\\n\",\n                                 \"END:VEVENT\\n\"\n                                )\n            );\n        }\n        return string(abi.encodePacked(vCalHeader, outputString, vCalFooter));\n    }\n\n\n    function unixTimeToStr(uint _unixTime) private pure returns (string memory) {\n        return string(\n            abi.encodePacked(\n            leadingZeroAdd(BokkyPooBahsDateTimeLibrary.getYear(_unixTime)),\n            leadingZeroAdd(BokkyPooBahsDateTimeLibrary.getMonth(_unixTime)),\n            leadingZeroAdd(BokkyPooBahsDateTimeLibrary.getDay(_unixTime)),\n            \"T\",\n            leadingZeroAdd(BokkyPooBahsDateTimeLibrary.getHour(_unixTime)),\n            leadingZeroAdd(BokkyPooBahsDateTimeLibrary.getMinute(_unixTime)),\n            leadingZeroAdd(BokkyPooBahsDateTimeLibrary.getSecond(_unixTime))\n        )\n        );\n    }\n\n    function leadingZeroAdd(uint _timePoint) private pure returns (string memory) {\n        string memory timeStr;\n        uint requiresZero = 9; // Time points less than 9 require leading zero\n        if (_timePoint > requiresZero ) {\n            timeStr = uintToStr(_timePoint);\n        } else {\n            timeStr = string(abi.encodePacked(\"0\", uintToStr(_timePoint)));\n        }\n        return timeStr;\n    }\n\n    // Returns all msg for msg.sender, regardless of time\n    function getEventsObj(address _calOwner) public view returns (VEvent[] memory) {\n\n        // Return error if no events\n        VEvent[] memory tempData = store[_calOwner];\n        return tempData;\n    }\n\n    /// @notice converts number to string\n    /// @dev source: https://github.com/provable-things/ethereum-api/blob/master/oraclizeAPI_0.5.sol#L1045\n    /// @param _i integer to convert\n    /// @return _uintAsString string\n    function uintToStr(uint _i) internal pure returns (string memory _uintAsString) {\n        uint number = _i;\n        if (number == 0) {\n            return \"0\";\n        }\n        uint j = number;\n        uint len;\n        while (j != 0) {\n            len++;\n            j /= 10;\n        }\n        bytes memory bstr = new bytes(len);\n        uint k = len - 1;\n        while (number != 0) {\n            bstr[k--] = byte(uint8(48 + number % 10));\n            number /= 10;\n        }\n        return string(bstr);\n    }\n\n    /// @notice converts address to string\n    /// @dev source: https://ethereum.stackexchange.com/a/8447/61217\n    /// @param _add address\n    /// @return string\n    function addressToStr(address _add) internal pure returns (string memory) {\n        bytes memory s = new bytes(40);\n        for (uint i = 0; i < 20; i++) {\n            byte b = byte(uint8(uint(_add) / (2**(8*(19 - i)))));\n            byte hi = byte(uint8(b) / 16);\n            byte lo = byte(uint8(b) - 16 * uint8(hi));\n            s[2*i] = char(hi);\n            s[2*i+1] = char(lo);\n        }\n        return string(s);\n    }\n\n    /// @notice character conversion for addressToStr\n    /// @dev source: https://ethereum.stackexchange.com/a/8447/61217\n    /// @param _b byte\n    /// @return c byte\n    function char(byte _b) internal pure returns (byte c) {\n        if (uint8(_b) < 10) {\n            return byte(uint8(_b) + 0x30);\n        } else {\n            return byte(uint8(_b) + 0x57);\n        }\n    }\n\n}\n\n// CalStore.deployed().then(function(instance) {app = instance})\n// app.storeEvent(1595170930, 1596121200, 1596123000, \"Meeting 1\", \"First Meeting\");\n// app.storeEvent(1595171030, 1596290400, 1596295800, \"Meeting 2\", \"Second Meeting\");\n// app.getEventsObj('0xE65616E1197298060479799B225a02D06005CA14');\n// app.getEventsIcal('0xE65616E1197298060479799B225a02D06005CA14');\n// app.justSayHi();\n\n// get all accounts: web3.eth.getAccounts().then(console.log)\n\n",
  "sourcePath": "/home/gene/Programming/Websites/Precious_Chicken_Website/blog_code_demos/forget-me-block-eth-cal/contracts/CalStore.sol",
  "compiler": {
    "name": "solc",
    "version": "0.6.1+commit.e6f7d5a4.Emscripten.clang"
  },
  "schemaVersion": "3.0.23",
  "updatedAt": "2020-08-04T11:10:17.993Z",
  "networkType": "ethereum",
  "devdoc": {
    "methods": {
      "getEventsIcal(address)": {
        "details": "TODO: Return if no events?",
        "params": {
          "_calOwner": "address of message sender"
        },
        "returns": {
          "_0": "string iCalendar string iaw RFC 5545"
        }
      }
    }
  },
  "userdoc": {
    "methods": {
      "getEventsIcal(address)": {
        "notice": "Returns iCal string of message senders previously stored data"
      }
    }
  }
}